{
  "address": "0x8eb7140668E427190c4d03261DE0f64659100fDB",
  "abi": [
    {
      "inputs": [
        {
          "internalType": "address",
          "name": "initialAdmin",
          "type": "address"
        },
        {
          "internalType": "address",
          "name": "_mumeNftContract",
          "type": "address"
        },
        {
          "internalType": "address",
          "name": "_muTokenContract",
          "type": "address"
        }
      ],
      "stateMutability": "nonpayable",
      "type": "constructor"
    },
    {
      "inputs": [],
      "name": "AccessControlBadConfirmation",
      "type": "error"
    },
    {
      "inputs": [
        {
          "internalType": "address",
          "name": "account",
          "type": "address"
        },
        {
          "internalType": "bytes32",
          "name": "neededRole",
          "type": "bytes32"
        }
      ],
      "name": "AccessControlUnauthorizedAccount",
      "type": "error"
    },
    {
      "anonymous": false,
      "inputs": [
        {
          "indexed": true,
          "internalType": "bytes32",
          "name": "role",
          "type": "bytes32"
        },
        {
          "indexed": true,
          "internalType": "bytes32",
          "name": "previousAdminRole",
          "type": "bytes32"
        },
        {
          "indexed": true,
          "internalType": "bytes32",
          "name": "newAdminRole",
          "type": "bytes32"
        }
      ],
      "name": "RoleAdminChanged",
      "type": "event"
    },
    {
      "anonymous": false,
      "inputs": [
        {
          "indexed": true,
          "internalType": "bytes32",
          "name": "role",
          "type": "bytes32"
        },
        {
          "indexed": true,
          "internalType": "address",
          "name": "account",
          "type": "address"
        },
        {
          "indexed": true,
          "internalType": "address",
          "name": "sender",
          "type": "address"
        }
      ],
      "name": "RoleGranted",
      "type": "event"
    },
    {
      "anonymous": false,
      "inputs": [
        {
          "indexed": true,
          "internalType": "bytes32",
          "name": "role",
          "type": "bytes32"
        },
        {
          "indexed": true,
          "internalType": "address",
          "name": "account",
          "type": "address"
        },
        {
          "indexed": true,
          "internalType": "address",
          "name": "sender",
          "type": "address"
        }
      ],
      "name": "RoleRevoked",
      "type": "event"
    },
    {
      "inputs": [],
      "name": "ADMIN_ROLE",
      "outputs": [
        {
          "internalType": "bytes32",
          "name": "",
          "type": "bytes32"
        }
      ],
      "stateMutability": "view",
      "type": "function"
    },
    {
      "inputs": [],
      "name": "DEFAULT_ADMIN_ROLE",
      "outputs": [
        {
          "internalType": "bytes32",
          "name": "",
          "type": "bytes32"
        }
      ],
      "stateMutability": "view",
      "type": "function"
    },
    {
      "inputs": [
        {
          "internalType": "uint256",
          "name": "",
          "type": "uint256"
        }
      ],
      "name": "canClaimMu",
      "outputs": [
        {
          "internalType": "bool",
          "name": "",
          "type": "bool"
        }
      ],
      "stateMutability": "view",
      "type": "function"
    },
    {
      "inputs": [
        {
          "internalType": "uint256",
          "name": "tokenId",
          "type": "uint256"
        }
      ],
      "name": "claimMu",
      "outputs": [],
      "stateMutability": "nonpayable",
      "type": "function"
    },
    {
      "inputs": [],
      "name": "contractDeployer",
      "outputs": [
        {
          "internalType": "address",
          "name": "",
          "type": "address"
        }
      ],
      "stateMutability": "view",
      "type": "function"
    },
    {
      "inputs": [
        {
          "internalType": "bytes32",
          "name": "role",
          "type": "bytes32"
        }
      ],
      "name": "getRoleAdmin",
      "outputs": [
        {
          "internalType": "bytes32",
          "name": "",
          "type": "bytes32"
        }
      ],
      "stateMutability": "view",
      "type": "function"
    },
    {
      "inputs": [
        {
          "internalType": "address",
          "name": "to",
          "type": "address"
        }
      ],
      "name": "grantAdmin",
      "outputs": [],
      "stateMutability": "nonpayable",
      "type": "function"
    },
    {
      "inputs": [
        {
          "internalType": "bytes32",
          "name": "role",
          "type": "bytes32"
        },
        {
          "internalType": "address",
          "name": "account",
          "type": "address"
        }
      ],
      "name": "grantRole",
      "outputs": [],
      "stateMutability": "nonpayable",
      "type": "function"
    },
    {
      "inputs": [
        {
          "internalType": "bytes32",
          "name": "role",
          "type": "bytes32"
        },
        {
          "internalType": "address",
          "name": "account",
          "type": "address"
        }
      ],
      "name": "hasRole",
      "outputs": [
        {
          "internalType": "bool",
          "name": "",
          "type": "bool"
        }
      ],
      "stateMutability": "view",
      "type": "function"
    },
    {
      "inputs": [
        {
          "internalType": "uint256",
          "name": "",
          "type": "uint256"
        }
      ],
      "name": "muGain",
      "outputs": [
        {
          "internalType": "uint256",
          "name": "",
          "type": "uint256"
        }
      ],
      "stateMutability": "view",
      "type": "function"
    },
    {
      "inputs": [],
      "name": "muTokenContract",
      "outputs": [
        {
          "internalType": "address",
          "name": "",
          "type": "address"
        }
      ],
      "stateMutability": "view",
      "type": "function"
    },
    {
      "inputs": [],
      "name": "mumeNftContract",
      "outputs": [
        {
          "internalType": "address",
          "name": "",
          "type": "address"
        }
      ],
      "stateMutability": "view",
      "type": "function"
    },
    {
      "inputs": [
        {
          "internalType": "bytes32",
          "name": "role",
          "type": "bytes32"
        },
        {
          "internalType": "address",
          "name": "callerConfirmation",
          "type": "address"
        }
      ],
      "name": "renounceRole",
      "outputs": [],
      "stateMutability": "nonpayable",
      "type": "function"
    },
    {
      "inputs": [
        {
          "internalType": "address",
          "name": "to",
          "type": "address"
        }
      ],
      "name": "revokeAdmin",
      "outputs": [],
      "stateMutability": "nonpayable",
      "type": "function"
    },
    {
      "inputs": [
        {
          "internalType": "bytes32",
          "name": "role",
          "type": "bytes32"
        },
        {
          "internalType": "address",
          "name": "account",
          "type": "address"
        }
      ],
      "name": "revokeRole",
      "outputs": [],
      "stateMutability": "nonpayable",
      "type": "function"
    },
    {
      "inputs": [
        {
          "internalType": "uint256",
          "name": "tokenId",
          "type": "uint256"
        },
        {
          "internalType": "bool",
          "name": "state",
          "type": "bool"
        }
      ],
      "name": "setNftCanClaimMu",
      "outputs": [],
      "stateMutability": "nonpayable",
      "type": "function"
    },
    {
      "inputs": [
        {
          "internalType": "uint256",
          "name": "tokenId",
          "type": "uint256"
        },
        {
          "internalType": "uint256",
          "name": "muAmountGain",
          "type": "uint256"
        }
      ],
      "name": "setNftClaimMuPromotion",
      "outputs": [],
      "stateMutability": "nonpayable",
      "type": "function"
    },
    {
      "inputs": [
        {
          "internalType": "uint256",
          "name": "tokenId",
          "type": "uint256"
        },
        {
          "internalType": "uint256",
          "name": "muAmountGain",
          "type": "uint256"
        }
      ],
      "name": "setNftMuClaimed",
      "outputs": [],
      "stateMutability": "nonpayable",
      "type": "function"
    },
    {
      "inputs": [
        {
          "internalType": "bytes4",
          "name": "interfaceId",
          "type": "bytes4"
        }
      ],
      "name": "supportsInterface",
      "outputs": [
        {
          "internalType": "bool",
          "name": "",
          "type": "bool"
        }
      ],
      "stateMutability": "view",
      "type": "function"
    }
  ],
  "transactionHash": "0x46242b71c9c8285b2454337c47d53044ef8398f46e4b24c556a59d4d3c6fe064",
  "args": [
    "0xC70Edf3aB36E0D57eFD8f412A3460D225931A110",
    "0x85BB3FeAAfFfd526856Eac03E8E8f5d52B752Ca2",
    "0xF8d18F1d810af610bd9126230C65dd54B3Cda500"
  ],
  "numDeployments": 1,
  "solcInputHash": "781c8602fa24e471b7a615d54eb7ff97",
  "bytecode": "0x608060405234801561001057600080fd5b50604051610b85380380610b8583398101604081905261002f91610164565b60018054336001600160a01b0319918216179091556002805482166001600160a01b0385811691909117909155600380549092169083161790556100937fa49807205ce4d355092ef5a8a18f56e8913cf4a201fbe287825b095693c217758461009c565b505050506101a7565b6000828152602081815260408083206001600160a01b038516845290915281205460ff1661013e576000838152602081815260408083206001600160a01b03861684529091529020805460ff191660011790556100f63390565b6001600160a01b0316826001600160a01b0316847f2f8788117e7eff1d82e926ec794901d17c78024a50270940304540a733656f0d60405160405180910390a4506001610142565b5060005b92915050565b80516001600160a01b038116811461015f57600080fd5b919050565b60008060006060848603121561017957600080fd5b61018284610148565b925061019060208501610148565b915061019e60408501610148565b90509250925092565b6109cf806101b66000396000f3fe608060405234801561001057600080fd5b50600436106101215760003560e01c806375b238fc116100ad578063a87e58b311610071578063a87e58b314610291578063d11f81e3146102a4578063d547741f146102b7578063f4991953146102ca578063f9589265146102dd57600080fd5b806375b238fc146102235780637bdd92d51461023857806391d148541461024b578063a217fddf1461025e578063a24bfc6e1461026657600080fd5b80632f2ff15d116100f45780632f2ff15d146101b457806335bb3e16146101c757806336568abe146101da57806356606bfb146101ed578063659d28391461021057600080fd5b806301d39dcb1461012657806301ffc9a714610159578063248a9ca31461017c5780632d3456701461019f575b600080fd5b610146610134366004610864565b60056020526000908152604090205481565b6040519081526020015b60405180910390f35b61016c61016736600461087d565b6102f0565b6040519015158152602001610150565b61014661018a366004610864565b60009081526020819052604090206001015490565b6101b26101ad3660046108c3565b610327565b005b6101b26101c23660046108e0565b6103ad565b6101b26101d53660046108c3565b6103d8565b6101b26101e83660046108e0565b610453565b61016c6101fb366004610864565b60046020526000908152604090205460ff1681565b6101b261021e366004610910565b610486565b61014660008051602061097a83398151915281565b6101b2610246366004610864565b6104b1565b61016c6102593660046108e0565b610656565b610146600081565b600154610279906001600160a01b031681565b6040516001600160a01b039091168152602001610150565b600354610279906001600160a01b031681565b6101b26102b2366004610932565b61067f565b6101b26102c53660046108e0565b6106b8565b600254610279906001600160a01b031681565b6101b26102eb366004610910565b6106dd565b60006001600160e01b03198216637965db0b60e01b148061032157506301ffc9a760e01b6001600160e01b03198316145b92915050565b60008051602061097a83398151915261033f8161071d565b336001600160a01b038316036103905760405162461bcd60e51b815260206004820152601160248201527021b0b713ba103932bb37b5b29039b2b63360791b60448201526064015b60405180910390fd5b6103a860008051602061097a8339815191528361072a565b505050565b6000828152602081905260409020600101546103c88161071d565b6103d2838361079d565b50505050565b60008051602061097a8339815191526103f08161071d565b336001600160a01b0383160361043b5760405162461bcd60e51b815260206004820152601060248201526f21b0b713ba1033b930b73a1039b2b63360811b6044820152606401610387565b6103a860008051602061097a8339815191528361079d565b6001600160a01b038116331461047c5760405163334bd91960e11b815260040160405180910390fd5b6103a8828261072a565b60008051602061097a83398151915261049e8161071d565b5060009182526005602052604090912055565b6002546003546040516331a9108f60e11b8152600481018490526001600160a01b0392831692909116906000908390636352211e90602401602060405180830381865afa158015610506573d6000803e3d6000fd5b505050506040513d601f19601f8201168201806040525081019061052a919061095c565b90506001600160a01b03811633146105735760405162461bcd60e51b815260206004820152600c60248201526b139bdd081e5bdd5c8813919560a21b6044820152606401610387565b60008481526004602052604090205460ff166105ca5760405162461bcd60e51b815260206004820152601660248201527554686973204e4654206e6f7420636c61696d61626c6560501b6044820152606401610387565b600084815260056020526040908190205490516340c10f1960e01b815233600482015260248101919091526001600160a01b038316906340c10f1990604401600060405180830381600087803b15801561062357600080fd5b505af1158015610637573d6000803e3d6000fd5b505050600094855250506004602052505060409020805460ff19169055565b6000918252602082815260408084206001600160a01b0393909316845291905290205460ff1690565b60008051602061097a8339815191526106978161071d565b50600091825260046020526040909120805460ff1916911515919091179055565b6000828152602081905260409020600101546106d38161071d565b6103d2838361072a565b60008051602061097a8339815191526106f58161071d565b506000918252600460209081526040808420805460ff19166001179055600590915290912055565b6107278133610827565b50565b60006107368383610656565b15610795576000838152602081815260408083206001600160a01b0386168085529252808320805460ff1916905551339286917ff6391f5c32d9c69d2a47ea670b442974b53935d1edc7fd64eb21e047a839171b9190a4506001610321565b506000610321565b60006107a98383610656565b610795576000838152602081815260408083206001600160a01b03861684529091529020805460ff191660011790556107df3390565b6001600160a01b0316826001600160a01b0316847f2f8788117e7eff1d82e926ec794901d17c78024a50270940304540a733656f0d60405160405180910390a4506001610321565b6108318282610656565b6108605760405163e2517d3f60e01b81526001600160a01b038216600482015260248101839052604401610387565b5050565b60006020828403121561087657600080fd5b5035919050565b60006020828403121561088f57600080fd5b81356001600160e01b0319811681146108a757600080fd5b9392505050565b6001600160a01b038116811461072757600080fd5b6000602082840312156108d557600080fd5b81356108a7816108ae565b600080604083850312156108f357600080fd5b823591506020830135610905816108ae565b809150509250929050565b6000806040838503121561092357600080fd5b50508035926020909101359150565b6000806040838503121561094557600080fd5b823591506020830135801515811461090557600080fd5b60006020828403121561096e57600080fd5b81516108a7816108ae56fea49807205ce4d355092ef5a8a18f56e8913cf4a201fbe287825b095693c21775a2646970667358221220519c2415971c44bef6bf5a2c1c87442c0897172b569851fa9cfdba21e8b0306a64736f6c63430008140033",
  "devdoc": {
    "errors": {
      "AccessControlBadConfirmation()": [
        {
          "details": "The caller of a function is not the expected one. NOTE: Don't confuse with {AccessControlUnauthorizedAccount}."
        }
      ],
      "AccessControlUnauthorizedAccount(address,bytes32)": [
        {
          "details": "The `account` is missing a role."
        }
      ]
    },
    "events": {
      "RoleAdminChanged(bytes32,bytes32,bytes32)": {
        "details": "Emitted when `newAdminRole` is set as ``role``'s admin role, replacing `previousAdminRole` `DEFAULT_ADMIN_ROLE` is the starting admin for all roles, despite {RoleAdminChanged} not being emitted signaling this."
      },
      "RoleGranted(bytes32,address,address)": {
        "details": "Emitted when `account` is granted `role`. `sender` is the account that originated the contract call, an admin role bearer except when using {AccessControl-_setupRole}."
      },
      "RoleRevoked(bytes32,address,address)": {
        "details": "Emitted when `account` is revoked `role`. `sender` is the account that originated the contract call:   - if using `revokeRole`, it is the admin role bearer   - if using `renounceRole`, it is the role bearer (i.e. `account`)"
      }
    },
    "kind": "dev",
    "methods": {
      "getRoleAdmin(bytes32)": {
        "details": "Returns the admin role that controls `role`. See {grantRole} and {revokeRole}. To change a role's admin, use {_setRoleAdmin}."
      },
      "grantRole(bytes32,address)": {
        "details": "Grants `role` to `account`. If `account` had not been already granted `role`, emits a {RoleGranted} event. Requirements: - the caller must have ``role``'s admin role. May emit a {RoleGranted} event."
      },
      "hasRole(bytes32,address)": {
        "details": "Returns `true` if `account` has been granted `role`."
      },
      "renounceRole(bytes32,address)": {
        "details": "Revokes `role` from the calling account. Roles are often managed via {grantRole} and {revokeRole}: this function's purpose is to provide a mechanism for accounts to lose their privileges if they are compromised (such as when a trusted device is misplaced). If the calling account had been revoked `role`, emits a {RoleRevoked} event. Requirements: - the caller must be `callerConfirmation`. May emit a {RoleRevoked} event."
      },
      "revokeRole(bytes32,address)": {
        "details": "Revokes `role` from `account`. If `account` had been granted `role`, emits a {RoleRevoked} event. Requirements: - the caller must have ``role``'s admin role. May emit a {RoleRevoked} event."
      },
      "supportsInterface(bytes4)": {
        "details": "See {IERC165-supportsInterface}."
      }
    },
    "version": 1
  },
  "userdoc": {
    "kind": "user",
    "methods": {},
    "version": 1
  },
  "storageLayout": {
    "storage": [
      {
        "astId": 26,
        "contract": "contracts/ClaimMuFromMumeNft2Contract.sol:ClaimMuFromMumeNft2Contract",
        "label": "_roles",
        "offset": 0,
        "slot": "0",
        "type": "t_mapping(t_bytes32,t_struct(RoleData)21_storage)"
      },
      {
        "astId": 5546,
        "contract": "contracts/ClaimMuFromMumeNft2Contract.sol:ClaimMuFromMumeNft2Contract",
        "label": "contractDeployer",
        "offset": 0,
        "slot": "1",
        "type": "t_address"
      },
      {
        "astId": 5548,
        "contract": "contracts/ClaimMuFromMumeNft2Contract.sol:ClaimMuFromMumeNft2Contract",
        "label": "mumeNftContract",
        "offset": 0,
        "slot": "2",
        "type": "t_address"
      },
      {
        "astId": 5550,
        "contract": "contracts/ClaimMuFromMumeNft2Contract.sol:ClaimMuFromMumeNft2Contract",
        "label": "muTokenContract",
        "offset": 0,
        "slot": "3",
        "type": "t_address"
      },
      {
        "astId": 5554,
        "contract": "contracts/ClaimMuFromMumeNft2Contract.sol:ClaimMuFromMumeNft2Contract",
        "label": "canClaimMu",
        "offset": 0,
        "slot": "4",
        "type": "t_mapping(t_uint256,t_bool)"
      },
      {
        "astId": 5558,
        "contract": "contracts/ClaimMuFromMumeNft2Contract.sol:ClaimMuFromMumeNft2Contract",
        "label": "muGain",
        "offset": 0,
        "slot": "5",
        "type": "t_mapping(t_uint256,t_uint256)"
      }
    ],
    "types": {
      "t_address": {
        "encoding": "inplace",
        "label": "address",
        "numberOfBytes": "20"
      },
      "t_bool": {
        "encoding": "inplace",
        "label": "bool",
        "numberOfBytes": "1"
      },
      "t_bytes32": {
        "encoding": "inplace",
        "label": "bytes32",
        "numberOfBytes": "32"
      },
      "t_mapping(t_address,t_bool)": {
        "encoding": "mapping",
        "key": "t_address",
        "label": "mapping(address => bool)",
        "numberOfBytes": "32",
        "value": "t_bool"
      },
      "t_mapping(t_bytes32,t_struct(RoleData)21_storage)": {
        "encoding": "mapping",
        "key": "t_bytes32",
        "label": "mapping(bytes32 => struct AccessControl.RoleData)",
        "numberOfBytes": "32",
        "value": "t_struct(RoleData)21_storage"
      },
      "t_mapping(t_uint256,t_bool)": {
        "encoding": "mapping",
        "key": "t_uint256",
        "label": "mapping(uint256 => bool)",
        "numberOfBytes": "32",
        "value": "t_bool"
      },
      "t_mapping(t_uint256,t_uint256)": {
        "encoding": "mapping",
        "key": "t_uint256",
        "label": "mapping(uint256 => uint256)",
        "numberOfBytes": "32",
        "value": "t_uint256"
      },
      "t_struct(RoleData)21_storage": {
        "encoding": "inplace",
        "label": "struct AccessControl.RoleData",
        "members": [
          {
            "astId": 18,
            "contract": "contracts/ClaimMuFromMumeNft2Contract.sol:ClaimMuFromMumeNft2Contract",
            "label": "hasRole",
            "offset": 0,
            "slot": "0",
            "type": "t_mapping(t_address,t_bool)"
          },
          {
            "astId": 20,
            "contract": "contracts/ClaimMuFromMumeNft2Contract.sol:ClaimMuFromMumeNft2Contract",
            "label": "adminRole",
            "offset": 0,
            "slot": "1",
            "type": "t_bytes32"
          }
        ],
        "numberOfBytes": "64"
      },
      "t_uint256": {
        "encoding": "inplace",
        "label": "uint256",
        "numberOfBytes": "32"
      }
    }
  }
}