{
  "address": "0x9215dEdA97D5dEaaec00F8bBf2Ee7d6829C05017",
  "abi": [
    {
      "inputs": [
        {
          "internalType": "address",
          "name": "initialAdmin",
          "type": "address"
        },
        {
          "internalType": "address",
          "name": "_mumeNftContract",
          "type": "address"
        },
        {
          "internalType": "address",
          "name": "_muTokenContract",
          "type": "address"
        }
      ],
      "stateMutability": "nonpayable",
      "type": "constructor"
    },
    {
      "inputs": [],
      "name": "AccessControlBadConfirmation",
      "type": "error"
    },
    {
      "inputs": [
        {
          "internalType": "address",
          "name": "account",
          "type": "address"
        },
        {
          "internalType": "bytes32",
          "name": "neededRole",
          "type": "bytes32"
        }
      ],
      "name": "AccessControlUnauthorizedAccount",
      "type": "error"
    },
    {
      "anonymous": false,
      "inputs": [
        {
          "indexed": true,
          "internalType": "bytes32",
          "name": "role",
          "type": "bytes32"
        },
        {
          "indexed": true,
          "internalType": "bytes32",
          "name": "previousAdminRole",
          "type": "bytes32"
        },
        {
          "indexed": true,
          "internalType": "bytes32",
          "name": "newAdminRole",
          "type": "bytes32"
        }
      ],
      "name": "RoleAdminChanged",
      "type": "event"
    },
    {
      "anonymous": false,
      "inputs": [
        {
          "indexed": true,
          "internalType": "bytes32",
          "name": "role",
          "type": "bytes32"
        },
        {
          "indexed": true,
          "internalType": "address",
          "name": "account",
          "type": "address"
        },
        {
          "indexed": true,
          "internalType": "address",
          "name": "sender",
          "type": "address"
        }
      ],
      "name": "RoleGranted",
      "type": "event"
    },
    {
      "anonymous": false,
      "inputs": [
        {
          "indexed": true,
          "internalType": "bytes32",
          "name": "role",
          "type": "bytes32"
        },
        {
          "indexed": true,
          "internalType": "address",
          "name": "account",
          "type": "address"
        },
        {
          "indexed": true,
          "internalType": "address",
          "name": "sender",
          "type": "address"
        }
      ],
      "name": "RoleRevoked",
      "type": "event"
    },
    {
      "inputs": [],
      "name": "ADMIN_ROLE",
      "outputs": [
        {
          "internalType": "bytes32",
          "name": "",
          "type": "bytes32"
        }
      ],
      "stateMutability": "view",
      "type": "function"
    },
    {
      "inputs": [],
      "name": "DEFAULT_ADMIN_ROLE",
      "outputs": [
        {
          "internalType": "bytes32",
          "name": "",
          "type": "bytes32"
        }
      ],
      "stateMutability": "view",
      "type": "function"
    },
    {
      "inputs": [
        {
          "internalType": "uint256",
          "name": "tokenId",
          "type": "uint256"
        },
        {
          "internalType": "uint256",
          "name": "amount",
          "type": "uint256"
        }
      ],
      "name": "claimMuReward",
      "outputs": [],
      "stateMutability": "nonpayable",
      "type": "function"
    },
    {
      "inputs": [
        {
          "internalType": "uint256",
          "name": "tokenId",
          "type": "uint256"
        }
      ],
      "name": "claimNft",
      "outputs": [],
      "stateMutability": "nonpayable",
      "type": "function"
    },
    {
      "inputs": [],
      "name": "contractDeployer",
      "outputs": [
        {
          "internalType": "address",
          "name": "",
          "type": "address"
        }
      ],
      "stateMutability": "view",
      "type": "function"
    },
    {
      "inputs": [
        {
          "internalType": "uint256",
          "name": "tokenId",
          "type": "uint256"
        }
      ],
      "name": "currentSessionLendTime",
      "outputs": [
        {
          "internalType": "uint256",
          "name": "",
          "type": "uint256"
        }
      ],
      "stateMutability": "view",
      "type": "function"
    },
    {
      "inputs": [
        {
          "internalType": "uint256",
          "name": "tokenId",
          "type": "uint256"
        }
      ],
      "name": "currentSessionMuReward",
      "outputs": [
        {
          "internalType": "uint256",
          "name": "",
          "type": "uint256"
        }
      ],
      "stateMutability": "view",
      "type": "function"
    },
    {
      "inputs": [
        {
          "internalType": "bytes32",
          "name": "role",
          "type": "bytes32"
        }
      ],
      "name": "getRoleAdmin",
      "outputs": [
        {
          "internalType": "bytes32",
          "name": "",
          "type": "bytes32"
        }
      ],
      "stateMutability": "view",
      "type": "function"
    },
    {
      "inputs": [
        {
          "internalType": "address",
          "name": "to",
          "type": "address"
        }
      ],
      "name": "grantAdmin",
      "outputs": [],
      "stateMutability": "nonpayable",
      "type": "function"
    },
    {
      "inputs": [
        {
          "internalType": "bytes32",
          "name": "role",
          "type": "bytes32"
        },
        {
          "internalType": "address",
          "name": "account",
          "type": "address"
        }
      ],
      "name": "grantRole",
      "outputs": [],
      "stateMutability": "nonpayable",
      "type": "function"
    },
    {
      "inputs": [
        {
          "internalType": "bytes32",
          "name": "role",
          "type": "bytes32"
        },
        {
          "internalType": "address",
          "name": "account",
          "type": "address"
        }
      ],
      "name": "hasRole",
      "outputs": [
        {
          "internalType": "bool",
          "name": "",
          "type": "bool"
        }
      ],
      "stateMutability": "view",
      "type": "function"
    },
    {
      "inputs": [
        {
          "internalType": "uint256",
          "name": "tokenId",
          "type": "uint256"
        }
      ],
      "name": "lendNft",
      "outputs": [],
      "stateMutability": "nonpayable",
      "type": "function"
    },
    {
      "inputs": [
        {
          "internalType": "uint256",
          "name": "",
          "type": "uint256"
        }
      ],
      "name": "lendStartAt",
      "outputs": [
        {
          "internalType": "uint256",
          "name": "",
          "type": "uint256"
        }
      ],
      "stateMutability": "view",
      "type": "function"
    },
    {
      "inputs": [
        {
          "internalType": "uint256",
          "name": "",
          "type": "uint256"
        }
      ],
      "name": "muToClaim",
      "outputs": [
        {
          "internalType": "uint256",
          "name": "",
          "type": "uint256"
        }
      ],
      "stateMutability": "view",
      "type": "function"
    },
    {
      "inputs": [],
      "name": "muTokenContract",
      "outputs": [
        {
          "internalType": "address",
          "name": "",
          "type": "address"
        }
      ],
      "stateMutability": "view",
      "type": "function"
    },
    {
      "inputs": [],
      "name": "mumeNftContract",
      "outputs": [
        {
          "internalType": "address",
          "name": "",
          "type": "address"
        }
      ],
      "stateMutability": "view",
      "type": "function"
    },
    {
      "inputs": [
        {
          "internalType": "uint256",
          "name": "",
          "type": "uint256"
        }
      ],
      "name": "nftOldOwner",
      "outputs": [
        {
          "internalType": "address",
          "name": "",
          "type": "address"
        }
      ],
      "stateMutability": "view",
      "type": "function"
    },
    {
      "inputs": [
        {
          "internalType": "uint256",
          "name": "tokenId",
          "type": "uint256"
        }
      ],
      "name": "renewLendSession",
      "outputs": [],
      "stateMutability": "nonpayable",
      "type": "function"
    },
    {
      "inputs": [
        {
          "internalType": "bytes32",
          "name": "role",
          "type": "bytes32"
        },
        {
          "internalType": "address",
          "name": "callerConfirmation",
          "type": "address"
        }
      ],
      "name": "renounceRole",
      "outputs": [],
      "stateMutability": "nonpayable",
      "type": "function"
    },
    {
      "inputs": [
        {
          "internalType": "address",
          "name": "to",
          "type": "address"
        }
      ],
      "name": "revokeAdmin",
      "outputs": [],
      "stateMutability": "nonpayable",
      "type": "function"
    },
    {
      "inputs": [
        {
          "internalType": "bytes32",
          "name": "role",
          "type": "bytes32"
        },
        {
          "internalType": "address",
          "name": "account",
          "type": "address"
        }
      ],
      "name": "revokeRole",
      "outputs": [],
      "stateMutability": "nonpayable",
      "type": "function"
    },
    {
      "inputs": [],
      "name": "rewardMuPerDay",
      "outputs": [
        {
          "internalType": "uint256",
          "name": "",
          "type": "uint256"
        }
      ],
      "stateMutability": "view",
      "type": "function"
    },
    {
      "inputs": [
        {
          "internalType": "uint256",
          "name": "muPerDay",
          "type": "uint256"
        }
      ],
      "name": "setLendRewards",
      "outputs": [],
      "stateMutability": "nonpayable",
      "type": "function"
    },
    {
      "inputs": [
        {
          "internalType": "bytes4",
          "name": "interfaceId",
          "type": "bytes4"
        }
      ],
      "name": "supportsInterface",
      "outputs": [
        {
          "internalType": "bool",
          "name": "",
          "type": "bool"
        }
      ],
      "stateMutability": "view",
      "type": "function"
    }
  ],
  "transactionHash": "0x09ce31be909f47023c56c0c97d3d0584f05823cca7fe97c96dd4d947bf7c9243",
  "args": [
    "0xC70Edf3aB36E0D57eFD8f412A3460D225931A110",
    "0xf5B8EeAd06e494384eD70B9ea6A191c874841fb8",
    "0x412534E7bBB3FC55833c6d32adc6b4450883F2bc"
  ],
  "numDeployments": 1,
  "solcInputHash": "3ca80e2079172a77adace0a7d2030c61",
  "bytecode": "0x6080604052662386f26fc100006007553480156200001c57600080fd5b5060405162001253380380620012538339810160408190526200003f916200017b565b60018054336001600160a01b0319918216179091556002805482166001600160a01b038581169190911790915560038054909216908316179055620000a57fa49807205ce4d355092ef5a8a18f56e8913cf4a201fbe287825b095693c2177584620000af565b50505050620001c5565b6000828152602081815260408083206001600160a01b038516845290915281205460ff1662000154576000838152602081815260408083206001600160a01b03861684529091529020805460ff191660011790556200010b3390565b6001600160a01b0316826001600160a01b0316847f2f8788117e7eff1d82e926ec794901d17c78024a50270940304540a733656f0d60405160405180910390a450600162000158565b5060005b92915050565b80516001600160a01b03811681146200017657600080fd5b919050565b6000806000606084860312156200019157600080fd5b6200019c846200015e565b9250620001ac602085016200015e565b9150620001bc604085016200015e565b90509250925092565b61107e80620001d56000396000f3fe608060405234801561001057600080fd5b50600436106101585760003560e01c80635b3851cc116100c3578063a87e58b31161007c578063a87e58b314610327578063ca096fbb1461033a578063ca4a51821461034d578063d547741f14610356578063e64fef9214610369578063f49919531461037c57600080fd5b80635b3851cc146102be578063628570d0146102d157806375b238fc146102e457806391d14854146102f9578063a217fddf1461030c578063a24bfc6e1461031457600080fd5b80632f2ff15d116101155780632f2ff15d1461021157806332eb06e01461022457806335bb3e161461026557806336568abe1461027857806338a4676d1461028b57806345079f4f146102ab57600080fd5b806301ffc9a71461015d5780630c671a21146101855780631c45b65a1461019a578063248a9ca3146101c85780632d345670146101eb5780632ec09d39146101fe575b600080fd5b61017061016b366004610e54565b61038f565b60405190151581526020015b60405180910390f35b610198610193366004610e85565b6103c6565b005b6101ba6101a8366004610ea7565b60066020526000908152604090205481565b60405190815260200161017c565b6101ba6101d6366004610ea7565b60009081526020819052604090206001015490565b6101986101f9366004610ed5565b61056f565b61019861020c366004610ea7565b6105f0565b61019861021f366004610ef2565b61078a565b61024d610232366004610ea7565b6004602052600090815260409020546001600160a01b031681565b6040516001600160a01b03909116815260200161017c565b610198610273366004610ed5565b6107b5565b610198610286366004610ef2565b610830565b6101ba610299366004610ea7565b60056020526000908152604090205481565b6101986102b9366004610ea7565b610863565b6101ba6102cc366004610ea7565b610aab565b6101986102df366004610ea7565b610b1e565b6101ba60008051602061102983398151915281565b610170610307366004610ef2565b610bd1565b6101ba600081565b60015461024d906001600160a01b031681565b60035461024d906001600160a01b031681565b610198610348366004610ea7565b610bfa565b6101ba60075481565b610198610364366004610ef2565b610c18565b6101ba610377366004610ea7565b610c3d565b60025461024d906001600160a01b031681565b60006001600160e01b03198216637965db0b60e01b14806103c057506301ffc9a760e01b6001600160e01b03198316145b92915050565b6002546000838152600460205260409020546001600160a01b03918216911633148061046357506040516331a9108f60e11b81526004810184905233906001600160a01b03831690636352211e90602401602060405180830381865afa158015610434573d6000803e3d6000fd5b505050506040513d601f19601f820116820180604052508101906104589190610f22565b6001600160a01b0316145b6104885760405162461bcd60e51b815260040161047f90610f3f565b60405180910390fd5b6000838152600660205260409020548211156104de5760405162461bcd60e51b8152602060048201526015602482015274139bdd081cdd59999a58da595b9d081c995dd85c99605a1b604482015260640161047f565b6003546040516340c10f1960e01b8152336004820152602481018490526001600160a01b039091169081906340c10f1990604401600060405180830381600087803b15801561052c57600080fd5b505af1158015610540573d6000803e3d6000fd5b50505060008581526006602052604081208054869350909190610564908490610f7b565b909155505050505050565b60008051602061102983398151915261058781610cb0565b336001600160a01b038316036105d35760405162461bcd60e51b815260206004820152601160248201527021b0b713ba103932bb37b5b29039b2b63360791b604482015260640161047f565b6105eb60008051602061102983398151915283610cbd565b505050565b6000818152600460205260409020546001600160a01b03166106245760405162461bcd60e51b815260040161047f90610f8e565b6000818152600460205260409020546001600160a01b0316331461065a5760405162461bcd60e51b815260040161047f90610f3f565b600061066582610d30565b90508060066000848152602001908152602001600020600082825461068a9190610fba565b90915550506002546040516311b1004f60e11b815260048101849052600160248201526001600160a01b03909116908190632362009e90604401600060405180830381600087803b1580156106de57600080fd5b505af11580156106f2573d6000803e3d6000fd5b50506040516323b872dd60e01b8152306004820152336024820152604481018690526001600160a01b03841692506323b872dd9150606401600060405180830381600087803b15801561074457600080fd5b505af1158015610758573d6000803e3d6000fd5b5050506000938452505060046020908152604080842080546001600160a01b0319169055600590915282209190915550565b6000828152602081905260409020600101546107a581610cb0565b6107af8383610d56565b50505050565b6000805160206110298339815191526107cd81610cb0565b336001600160a01b038316036108185760405162461bcd60e51b815260206004820152601060248201526f21b0b713ba1033b930b73a1039b2b63360811b604482015260640161047f565b6105eb60008051602061102983398151915283610d56565b6001600160a01b03811633146108595760405163334bd91960e11b815260040160405180910390fd5b6105eb8282610cbd565b6002546040516331a9108f60e11b8152600481018390526001600160a01b03909116906000908290636352211e90602401602060405180830381865afa1580156108b1573d6000803e3d6000fd5b505050506040513d601f19601f820116820180604052508101906108d59190610f22565b90506001600160a01b03811633146108ff5760405162461bcd60e51b815260040161047f90610f3f565b60405163d8ef2b4760e01b8152600481018490526001600160a01b0383169063d8ef2b4790602401602060405180830381865afa158015610944573d6000803e3d6000fd5b505050506040513d601f19601f820116820180604052508101906109689190610fcd565b6109b45760405162461bcd60e51b815260206004820152601860248201527f54686973204e46542069736e277420747261646561626c650000000000000000604482015260640161047f565b6040516323b872dd60e01b8152336004820152306024820152604481018490526001600160a01b038316906323b872dd90606401600060405180830381600087803b158015610a0257600080fd5b505af1158015610a16573d6000803e3d6000fd5b505060405163395b895360e21b815260048101869052600060248201526001600160a01b038516925063e56e254c9150604401600060405180830381600087803b158015610a6357600080fd5b505af1158015610a77573d6000803e3d6000fd5b5050506000938452505060046020908152604080842080546001600160a01b03191633179055600590915290912042905550565b6000818152600460205260408120546001600160a01b0316610adf5760405162461bcd60e51b815260040161047f90610f8e565b6000828152600460205260409020546001600160a01b03163314610b155760405162461bcd60e51b815260040161047f90610f3f565b6103c082610d30565b6000818152600460205260409020546001600160a01b0316610b525760405162461bcd60e51b815260040161047f90610f8e565b6000818152600460205260409020546001600160a01b03163314610b885760405162461bcd60e51b815260040161047f90610f3f565b6000610b9382610d30565b905080600660008481526020019081526020016000206000828254610bb89190610fba565b9091555050506000908152600560205260409020429055565b6000918252602082815260408084206001600160a01b0393909316845291905290205460ff1690565b600080516020611029833981519152610c1281610cb0565b50600755565b600082815260208190526040902060010154610c3381610cb0565b6107af8383610cbd565b6000818152600460205260408120546001600160a01b0316610c715760405162461bcd60e51b815260040161047f90610f8e565b6000828152600460205260409020546001600160a01b03163314610ca75760405162461bcd60e51b815260040161047f90610f3f565b6103c082610de0565b610cba8133610e17565b50565b6000610cc98383610bd1565b15610d28576000838152602081815260408083206001600160a01b0386168085529252808320805460ff1916905551339286917ff6391f5c32d9c69d2a47ea670b442974b53935d1edc7fd64eb21e047a839171b9190a45060016103c0565b5060006103c0565b600062015180600754610d4284610de0565b610d4c9190610fef565b6103c09190611006565b6000610d628383610bd1565b610d28576000838152602081815260408083206001600160a01b03861684529091529020805460ff19166001179055610d983390565b6001600160a01b0316826001600160a01b0316847f2f8788117e7eff1d82e926ec794901d17c78024a50270940304540a733656f0d60405160405180910390a45060016103c0565b600081815260056020526040812054421015610dfe57506000919050565b6000828152600560205260409020546103c09042610f7b565b610e218282610bd1565b610e505760405163e2517d3f60e01b81526001600160a01b03821660048201526024810183905260440161047f565b5050565b600060208284031215610e6657600080fd5b81356001600160e01b031981168114610e7e57600080fd5b9392505050565b60008060408385031215610e9857600080fd5b50508035926020909101359150565b600060208284031215610eb957600080fd5b5035919050565b6001600160a01b0381168114610cba57600080fd5b600060208284031215610ee757600080fd5b8135610e7e81610ec0565b60008060408385031215610f0557600080fd5b823591506020830135610f1781610ec0565b809150509250929050565b600060208284031215610f3457600080fd5b8151610e7e81610ec0565b6020808252600c908201526b139bdd081e5bdd5c8813919560a21b604082015260600190565b634e487b7160e01b600052601160045260246000fd5b818103818111156103c0576103c0610f65565b6020808252601290820152714e4654206973206e6f74206c656e64696e6760701b604082015260600190565b808201808211156103c0576103c0610f65565b600060208284031215610fdf57600080fd5b81518015158114610e7e57600080fd5b80820281158282048414176103c0576103c0610f65565b60008261102357634e487b7160e01b600052601260045260246000fd5b50049056fea49807205ce4d355092ef5a8a18f56e8913cf4a201fbe287825b095693c21775a264697066735822122099d8849e74b4d5fdde192adf3bc2f9c676ffbb28465a023e1550bf73486197b064736f6c63430008140033",
  "devdoc": {
    "errors": {
      "AccessControlBadConfirmation()": [
        {
          "details": "The caller of a function is not the expected one. NOTE: Don't confuse with {AccessControlUnauthorizedAccount}."
        }
      ],
      "AccessControlUnauthorizedAccount(address,bytes32)": [
        {
          "details": "The `account` is missing a role."
        }
      ]
    },
    "events": {
      "RoleAdminChanged(bytes32,bytes32,bytes32)": {
        "details": "Emitted when `newAdminRole` is set as ``role``'s admin role, replacing `previousAdminRole` `DEFAULT_ADMIN_ROLE` is the starting admin for all roles, despite {RoleAdminChanged} not being emitted signaling this."
      },
      "RoleGranted(bytes32,address,address)": {
        "details": "Emitted when `account` is granted `role`. `sender` is the account that originated the contract call, an admin role bearer except when using {AccessControl-_setupRole}."
      },
      "RoleRevoked(bytes32,address,address)": {
        "details": "Emitted when `account` is revoked `role`. `sender` is the account that originated the contract call:   - if using `revokeRole`, it is the admin role bearer   - if using `renounceRole`, it is the role bearer (i.e. `account`)"
      }
    },
    "kind": "dev",
    "methods": {
      "getRoleAdmin(bytes32)": {
        "details": "Returns the admin role that controls `role`. See {grantRole} and {revokeRole}. To change a role's admin, use {_setRoleAdmin}."
      },
      "grantRole(bytes32,address)": {
        "details": "Grants `role` to `account`. If `account` had not been already granted `role`, emits a {RoleGranted} event. Requirements: - the caller must have ``role``'s admin role. May emit a {RoleGranted} event."
      },
      "hasRole(bytes32,address)": {
        "details": "Returns `true` if `account` has been granted `role`."
      },
      "renounceRole(bytes32,address)": {
        "details": "Revokes `role` from the calling account. Roles are often managed via {grantRole} and {revokeRole}: this function's purpose is to provide a mechanism for accounts to lose their privileges if they are compromised (such as when a trusted device is misplaced). If the calling account had been revoked `role`, emits a {RoleRevoked} event. Requirements: - the caller must be `callerConfirmation`. May emit a {RoleRevoked} event."
      },
      "revokeRole(bytes32,address)": {
        "details": "Revokes `role` from `account`. If `account` had been granted `role`, emits a {RoleRevoked} event. Requirements: - the caller must have ``role``'s admin role. May emit a {RoleRevoked} event."
      },
      "supportsInterface(bytes4)": {
        "details": "See {IERC165-supportsInterface}."
      }
    },
    "version": 1
  },
  "userdoc": {
    "kind": "user",
    "methods": {},
    "version": 1
  },
  "storageLayout": {
    "storage": [
      {
        "astId": 26,
        "contract": "contracts/LendMumeNft.sol:LendMumeNftContract",
        "label": "_roles",
        "offset": 0,
        "slot": "0",
        "type": "t_mapping(t_bytes32,t_struct(RoleData)21_storage)"
      },
      {
        "astId": 501,
        "contract": "contracts/LendMumeNft.sol:LendMumeNftContract",
        "label": "contractDeployer",
        "offset": 0,
        "slot": "1",
        "type": "t_address"
      },
      {
        "astId": 503,
        "contract": "contracts/LendMumeNft.sol:LendMumeNftContract",
        "label": "mumeNftContract",
        "offset": 0,
        "slot": "2",
        "type": "t_address"
      },
      {
        "astId": 505,
        "contract": "contracts/LendMumeNft.sol:LendMumeNftContract",
        "label": "muTokenContract",
        "offset": 0,
        "slot": "3",
        "type": "t_address"
      },
      {
        "astId": 509,
        "contract": "contracts/LendMumeNft.sol:LendMumeNftContract",
        "label": "nftOldOwner",
        "offset": 0,
        "slot": "4",
        "type": "t_mapping(t_uint256,t_address)"
      },
      {
        "astId": 513,
        "contract": "contracts/LendMumeNft.sol:LendMumeNftContract",
        "label": "lendStartAt",
        "offset": 0,
        "slot": "5",
        "type": "t_mapping(t_uint256,t_uint256)"
      },
      {
        "astId": 517,
        "contract": "contracts/LendMumeNft.sol:LendMumeNftContract",
        "label": "muToClaim",
        "offset": 0,
        "slot": "6",
        "type": "t_mapping(t_uint256,t_uint256)"
      },
      {
        "astId": 520,
        "contract": "contracts/LendMumeNft.sol:LendMumeNftContract",
        "label": "rewardMuPerDay",
        "offset": 0,
        "slot": "7",
        "type": "t_uint256"
      }
    ],
    "types": {
      "t_address": {
        "encoding": "inplace",
        "label": "address",
        "numberOfBytes": "20"
      },
      "t_bool": {
        "encoding": "inplace",
        "label": "bool",
        "numberOfBytes": "1"
      },
      "t_bytes32": {
        "encoding": "inplace",
        "label": "bytes32",
        "numberOfBytes": "32"
      },
      "t_mapping(t_address,t_bool)": {
        "encoding": "mapping",
        "key": "t_address",
        "label": "mapping(address => bool)",
        "numberOfBytes": "32",
        "value": "t_bool"
      },
      "t_mapping(t_bytes32,t_struct(RoleData)21_storage)": {
        "encoding": "mapping",
        "key": "t_bytes32",
        "label": "mapping(bytes32 => struct AccessControl.RoleData)",
        "numberOfBytes": "32",
        "value": "t_struct(RoleData)21_storage"
      },
      "t_mapping(t_uint256,t_address)": {
        "encoding": "mapping",
        "key": "t_uint256",
        "label": "mapping(uint256 => address)",
        "numberOfBytes": "32",
        "value": "t_address"
      },
      "t_mapping(t_uint256,t_uint256)": {
        "encoding": "mapping",
        "key": "t_uint256",
        "label": "mapping(uint256 => uint256)",
        "numberOfBytes": "32",
        "value": "t_uint256"
      },
      "t_struct(RoleData)21_storage": {
        "encoding": "inplace",
        "label": "struct AccessControl.RoleData",
        "members": [
          {
            "astId": 18,
            "contract": "contracts/LendMumeNft.sol:LendMumeNftContract",
            "label": "hasRole",
            "offset": 0,
            "slot": "0",
            "type": "t_mapping(t_address,t_bool)"
          },
          {
            "astId": 20,
            "contract": "contracts/LendMumeNft.sol:LendMumeNftContract",
            "label": "adminRole",
            "offset": 0,
            "slot": "1",
            "type": "t_bytes32"
          }
        ],
        "numberOfBytes": "64"
      },
      "t_uint256": {
        "encoding": "inplace",
        "label": "uint256",
        "numberOfBytes": "32"
      }
    }
  }
}