{
  "address": "0xc665d5973C535a44b4C79f70a93FfC306d76A10F",
  "abi": [
    {
      "inputs": [
        {
          "internalType": "address",
          "name": "exchangeAddress",
          "type": "address"
        },
        {
          "internalType": "address",
          "name": "contractAddress",
          "type": "address"
        },
        {
          "internalType": "address",
          "name": "initialAdmin",
          "type": "address"
        }
      ],
      "stateMutability": "nonpayable",
      "type": "constructor"
    },
    {
      "inputs": [],
      "name": "AccessControlBadConfirmation",
      "type": "error"
    },
    {
      "inputs": [
        {
          "internalType": "address",
          "name": "account",
          "type": "address"
        },
        {
          "internalType": "bytes32",
          "name": "neededRole",
          "type": "bytes32"
        }
      ],
      "name": "AccessControlUnauthorizedAccount",
      "type": "error"
    },
    {
      "anonymous": false,
      "inputs": [
        {
          "indexed": true,
          "internalType": "uint256",
          "name": "oldRate",
          "type": "uint256"
        },
        {
          "indexed": true,
          "internalType": "uint256",
          "name": "newRate",
          "type": "uint256"
        }
      ],
      "name": "ChangeFee",
      "type": "event"
    },
    {
      "anonymous": false,
      "inputs": [
        {
          "indexed": true,
          "internalType": "bytes32",
          "name": "role",
          "type": "bytes32"
        },
        {
          "indexed": true,
          "internalType": "bytes32",
          "name": "previousAdminRole",
          "type": "bytes32"
        },
        {
          "indexed": true,
          "internalType": "bytes32",
          "name": "newAdminRole",
          "type": "bytes32"
        }
      ],
      "name": "RoleAdminChanged",
      "type": "event"
    },
    {
      "anonymous": false,
      "inputs": [
        {
          "indexed": true,
          "internalType": "bytes32",
          "name": "role",
          "type": "bytes32"
        },
        {
          "indexed": true,
          "internalType": "address",
          "name": "account",
          "type": "address"
        },
        {
          "indexed": true,
          "internalType": "address",
          "name": "sender",
          "type": "address"
        }
      ],
      "name": "RoleGranted",
      "type": "event"
    },
    {
      "anonymous": false,
      "inputs": [
        {
          "indexed": true,
          "internalType": "bytes32",
          "name": "role",
          "type": "bytes32"
        },
        {
          "indexed": true,
          "internalType": "address",
          "name": "account",
          "type": "address"
        },
        {
          "indexed": true,
          "internalType": "address",
          "name": "sender",
          "type": "address"
        }
      ],
      "name": "RoleRevoked",
      "type": "event"
    },
    {
      "anonymous": false,
      "inputs": [
        {
          "indexed": true,
          "internalType": "address",
          "name": "caller",
          "type": "address"
        },
        {
          "indexed": false,
          "internalType": "uint256",
          "name": "jbcAmount",
          "type": "uint256"
        },
        {
          "indexed": false,
          "internalType": "uint256",
          "name": "cmjAmount",
          "type": "uint256"
        },
        {
          "indexed": false,
          "internalType": "uint256",
          "name": "platformfee",
          "type": "uint256"
        }
      ],
      "name": "SwapJbcToMatu",
      "type": "event"
    },
    {
      "anonymous": false,
      "inputs": [
        {
          "indexed": true,
          "internalType": "address",
          "name": "caller",
          "type": "address"
        },
        {
          "indexed": false,
          "internalType": "uint256",
          "name": "cmjAmount",
          "type": "uint256"
        },
        {
          "indexed": false,
          "internalType": "uint256",
          "name": "jbcAmount",
          "type": "uint256"
        },
        {
          "indexed": false,
          "internalType": "uint256",
          "name": "platformfee",
          "type": "uint256"
        }
      ],
      "name": "SwapMatuToJbc",
      "type": "event"
    },
    {
      "anonymous": false,
      "inputs": [
        {
          "indexed": true,
          "internalType": "address",
          "name": "to",
          "type": "address"
        },
        {
          "indexed": true,
          "internalType": "uint256",
          "name": "_amount",
          "type": "uint256"
        }
      ],
      "name": "WithdrawFee",
      "type": "event"
    },
    {
      "stateMutability": "payable",
      "type": "fallback"
    },
    {
      "inputs": [],
      "name": "ADMIN_ROLE",
      "outputs": [
        {
          "internalType": "bytes32",
          "name": "",
          "type": "bytes32"
        }
      ],
      "stateMutability": "view",
      "type": "function"
    },
    {
      "inputs": [],
      "name": "DEFAULT_ADMIN_ROLE",
      "outputs": [
        {
          "internalType": "bytes32",
          "name": "",
          "type": "bytes32"
        }
      ],
      "stateMutability": "view",
      "type": "function"
    },
    {
      "inputs": [],
      "name": "approveExchange",
      "outputs": [],
      "stateMutability": "nonpayable",
      "type": "function"
    },
    {
      "inputs": [],
      "name": "contractDeployer",
      "outputs": [
        {
          "internalType": "address",
          "name": "",
          "type": "address"
        }
      ],
      "stateMutability": "view",
      "type": "function"
    },
    {
      "inputs": [
        {
          "internalType": "uint256",
          "name": "_cmjAmount",
          "type": "uint256"
        }
      ],
      "name": "exchangeCmjToJbc",
      "outputs": [],
      "stateMutability": "nonpayable",
      "type": "function"
    },
    {
      "inputs": [],
      "name": "exchangeJbcToCmj",
      "outputs": [],
      "stateMutability": "payable",
      "type": "function"
    },
    {
      "inputs": [],
      "name": "fee",
      "outputs": [
        {
          "internalType": "uint256",
          "name": "",
          "type": "uint256"
        }
      ],
      "stateMutability": "view",
      "type": "function"
    },
    {
      "inputs": [
        {
          "internalType": "bytes32",
          "name": "role",
          "type": "bytes32"
        }
      ],
      "name": "getRoleAdmin",
      "outputs": [
        {
          "internalType": "bytes32",
          "name": "",
          "type": "bytes32"
        }
      ],
      "stateMutability": "view",
      "type": "function"
    },
    {
      "inputs": [
        {
          "internalType": "address",
          "name": "to",
          "type": "address"
        }
      ],
      "name": "grantAdmin",
      "outputs": [],
      "stateMutability": "nonpayable",
      "type": "function"
    },
    {
      "inputs": [
        {
          "internalType": "bytes32",
          "name": "role",
          "type": "bytes32"
        },
        {
          "internalType": "address",
          "name": "account",
          "type": "address"
        }
      ],
      "name": "grantRole",
      "outputs": [],
      "stateMutability": "nonpayable",
      "type": "function"
    },
    {
      "inputs": [
        {
          "internalType": "bytes32",
          "name": "role",
          "type": "bytes32"
        },
        {
          "internalType": "address",
          "name": "account",
          "type": "address"
        }
      ],
      "name": "hasRole",
      "outputs": [
        {
          "internalType": "bool",
          "name": "",
          "type": "bool"
        }
      ],
      "stateMutability": "view",
      "type": "function"
    },
    {
      "inputs": [],
      "name": "matuContractAddress",
      "outputs": [
        {
          "internalType": "address",
          "name": "",
          "type": "address"
        }
      ],
      "stateMutability": "view",
      "type": "function"
    },
    {
      "inputs": [],
      "name": "matuExchangeAddress",
      "outputs": [
        {
          "internalType": "address",
          "name": "",
          "type": "address"
        }
      ],
      "stateMutability": "view",
      "type": "function"
    },
    {
      "inputs": [
        {
          "internalType": "bytes32",
          "name": "role",
          "type": "bytes32"
        },
        {
          "internalType": "address",
          "name": "callerConfirmation",
          "type": "address"
        }
      ],
      "name": "renounceRole",
      "outputs": [],
      "stateMutability": "nonpayable",
      "type": "function"
    },
    {
      "inputs": [
        {
          "internalType": "address",
          "name": "to",
          "type": "address"
        }
      ],
      "name": "revokeAdmin",
      "outputs": [],
      "stateMutability": "nonpayable",
      "type": "function"
    },
    {
      "inputs": [
        {
          "internalType": "bytes32",
          "name": "role",
          "type": "bytes32"
        },
        {
          "internalType": "address",
          "name": "account",
          "type": "address"
        }
      ],
      "name": "revokeRole",
      "outputs": [],
      "stateMutability": "nonpayable",
      "type": "function"
    },
    {
      "inputs": [
        {
          "internalType": "uint256",
          "name": "_rate",
          "type": "uint256"
        }
      ],
      "name": "setFee",
      "outputs": [],
      "stateMutability": "nonpayable",
      "type": "function"
    },
    {
      "inputs": [
        {
          "internalType": "bytes4",
          "name": "interfaceId",
          "type": "bytes4"
        }
      ],
      "name": "supportsInterface",
      "outputs": [
        {
          "internalType": "bool",
          "name": "",
          "type": "bool"
        }
      ],
      "stateMutability": "view",
      "type": "function"
    },
    {
      "inputs": [
        {
          "internalType": "uint256",
          "name": "_amount",
          "type": "uint256"
        },
        {
          "internalType": "address",
          "name": "_to",
          "type": "address"
        }
      ],
      "name": "withdrawFee",
      "outputs": [],
      "stateMutability": "nonpayable",
      "type": "function"
    },
    {
      "stateMutability": "payable",
      "type": "receive"
    }
  ],
  "transactionHash": "0x71cee3b77e5d0ac06ec418cd554046a2a9207ea37742f1fce09057f1d08132f0",
  "args": [
    "0x06f48166fF6f459BDd570fC64f940cEe6Ba67de0",
    "0xB5cF482F8528a445CBF553fd98179e4D766D07a3",
    "0xC70Edf3aB36E0D57eFD8f412A3460D225931A110"
  ],
  "numDeployments": 2,
  "solcInputHash": "3370d6f610ad84d49a42f5df8780051c",
  "bytecode": "0x60806040523480156200001157600080fd5b50604051620010bc380380620010bc833981016040819052620000349162000177565b600280546001600160a01b038085166001600160a01b031992831617909255600180549286169282169290921790915560038054909116331790556200009b7fa49807205ce4d355092ef5a8a18f56e8913cf4a201fbe287825b095693c2177582620000ab565b5050601e60045550620001c19050565b6000828152602081815260408083206001600160a01b038516845290915281205460ff1662000150576000838152602081815260408083206001600160a01b03861684529091529020805460ff19166001179055620001073390565b6001600160a01b0316826001600160a01b0316847f2f8788117e7eff1d82e926ec794901d17c78024a50270940304540a733656f0d60405160405180910390a450600162000154565b5060005b92915050565b80516001600160a01b03811681146200017257600080fd5b919050565b6000806000606084860312156200018d57600080fd5b62000198846200015a565b9250620001a8602085016200015a565b9150620001b8604085016200015a565b90509250925092565b610eeb80620001d16000396000f3fe60806040526004361061010c5760003560e01c806369fe0e2d1161009a578063a217fddf11610061578063a217fddf1461030a578063a24bfc6e1461031f578063bba9cd371461033f578063d547741f14610354578063ddca3f431461037457005b806369fe0e2d1461026857806375b238fc1461028857806379446771146102aa57806391d14854146102ca5780639c74a3ef146102ea57005b806335bb3e16116100de57806335bb3e16146101c857806336568abe146101e85780633e03d6e114610208578063405d65d2146102105780635f5c64031461024857005b806301ffc9a714610115578063248a9ca31461014a5780632d345670146101885780632f2ff15d146101a857005b3661011357005b005b34801561012157600080fd5b50610135610130366004610d4b565b61038a565b60405190151581526020015b60405180910390f35b34801561015657600080fd5b5061017a610165366004610d7c565b60009081526020819052604090206001015490565b604051908152602001610141565b34801561019457600080fd5b506101136101a3366004610db1565b6103c1565b3480156101b457600080fd5b506101136101c3366004610dcc565b610447565b3480156101d457600080fd5b506101136101e3366004610db1565b610472565b3480156101f457600080fd5b50610113610203366004610dcc565b6104ed565b610113610520565b34801561021c57600080fd5b50600154610230906001600160a01b031681565b6040516001600160a01b039091168152602001610141565b34801561025457600080fd5b50600254610230906001600160a01b031681565b34801561027457600080fd5b50610113610283366004610d7c565b6107ad565b34801561029457600080fd5b5061017a600080516020610e9683398151915281565b3480156102b657600080fd5b506101136102c5366004610d7c565b6107fa565b3480156102d657600080fd5b506101356102e5366004610dcc565b610a9a565b3480156102f657600080fd5b50610113610305366004610dcc565b610ac3565b34801561031657600080fd5b5061017a600081565b34801561032b57600080fd5b50600354610230906001600160a01b031681565b34801561034b57600080fd5b50610113610b4d565b34801561036057600080fd5b5061011361036f366004610dcc565b610be3565b34801561038057600080fd5b5061017a60045481565b60006001600160e01b03198216637965db0b60e01b14806103bb57506301ffc9a760e01b6001600160e01b03198316145b92915050565b600080516020610e968339815191526103d981610c08565b336001600160a01b0383160361042a5760405162461bcd60e51b815260206004820152601160248201527021b0b713ba103932bb37b5b29039b2b63360791b60448201526064015b60405180910390fd5b610442600080516020610e9683398151915283610c15565b505050565b60008281526020819052604090206001015461046281610c08565b61046c8383610c88565b50505050565b600080516020610e9683398151915261048a81610c08565b336001600160a01b038316036104d55760405162461bcd60e51b815260206004820152601060248201526f21b0b713ba1033b930b73a1039b2b63360811b6044820152606401610421565b610442600080516020610e9683398151915283610c88565b6001600160a01b03811633146105165760405163334bd91960e11b815260040160405180910390fd5b6104428282610c15565b6127103410156105575760405162461bcd60e51b81526020600482015260026024820152614e4160f01b6044820152606401610421565b60045460009061056961271034610e0e565b6105739190610e30565b61057d9034610e47565b600154604080516359bf5d3960e01b815290519293506000926001600160a01b0390921691637386479e91859184319185916359bf5d39916004808201926020929091908290030181865afa1580156105da573d6000803e3d6000fd5b505050506040513d601f19601f820116820180604052508101906105fe9190610e5a565b6040516001600160e01b031960e086901b168152600481019390935260248301919091526044820152606401602060405180830381865afa158015610647573d6000803e3d6000fd5b505050506040513d601f19601f8201168201806040525081019061066b9190610e5a565b60015460405163f4c9a0cb60e01b8152600481018390529192506001600160a01b03169063f4c9a0cb9084906024016000604051808303818588803b1580156106b357600080fd5b505af11580156106c7573d6000803e3d6000fd5b505060025460405163a9059cbb60e01b8152336004820152602481018690526001600160a01b03909116935063a9059cbb925060440190506020604051808303816000875af115801561071e573d6000803e3d6000fd5b505050506040513d601f19601f820116820180604052508101906107429190610e73565b50336001600160a01b03167f0b3e4a313b1628503b5d84327ac394a1ee68b393fd59d32d46e8d1a1282fafe93483600454612710346107819190610e0e565b61078b9190610e30565b6040805193845260208401929092529082015260600160405180910390a25050565b600080516020610e968339815191526107c581610c08565b6004546040518391907f91e72fa36e0202be93e86c97a3d3d3497cf0a06cf859b14b616a304367835a8e90600090a350600455565b600154604080516359bf5d3960e01b815290516000926001600160a01b031691637386479e91859184916359bf5d39916004808201926020929091908290030181865afa15801561084f573d6000803e3d6000fd5b505050506040513d601f19601f820116820180604052508101906108739190610e5a565b60015460405160e085901b6001600160e01b0319168152600481019390935260248301919091526001600160a01b0316316044820152606401602060405180830381865afa1580156108c9573d6000803e3d6000fd5b505050506040513d601f19601f820116820180604052508101906108ed9190610e5a565b90506127108110156109265760405162461bcd60e51b81526020600482015260026024820152614e4160f01b6044820152606401610421565b6002546040516323b872dd60e01b8152336004820152306024820152604481018490526001600160a01b03909116906323b872dd906064016020604051808303816000875af115801561097d573d6000803e3d6000fd5b505050506040513d601f19601f820116820180604052508101906109a19190610e73565b5060015460405160016223001360e01b0319815260048101849052602481018390526001600160a01b039091169063ffdcffed90604401600060405180830381600087803b1580156109f257600080fd5b505af1158015610a06573d6000803e3d6000fd5b50506004543392506108fc9150610a1f61271085610e0e565b610a299190610e30565b610a339084610e47565b6040518115909202916000818181858888f19350505050158015610a5b573d6000803e3d6000fd5b50336001600160a01b03167f94d939217447b16d2ab5b35eff1da6a61ce70768acf3c26a3de20d95c137406c8383600454612710866107819190610e0e565b6000918252602082815260408084206001600160a01b0393909316845291905290205460ff1690565b600080516020610e96833981519152610adb81610c08565b6040516001600160a01b0383169084156108fc029085906000818181858888f19350505050158015610b11573d6000803e3d6000fd5b5060405183906001600160a01b038416907f66bf9186b00db666fc37aaffbb95a050c66e599e000c785c1dff0467d868f1b190600090a3505050565b600080516020610e96833981519152610b6581610c08565b60025460015460405163095ea7b360e01b81526001600160a01b039182166004820152600019602482015291169063095ea7b3906044016020604051808303816000875af1158015610bbb573d6000803e3d6000fd5b505050506040513d601f19601f82011682018060405250810190610bdf9190610e73565b5050565b600082815260208190526040902060010154610bfe81610c08565b61046c8383610c15565b610c128133610d12565b50565b6000610c218383610a9a565b15610c80576000838152602081815260408083206001600160a01b0386168085529252808320805460ff1916905551339286917ff6391f5c32d9c69d2a47ea670b442974b53935d1edc7fd64eb21e047a839171b9190a45060016103bb565b5060006103bb565b6000610c948383610a9a565b610c80576000838152602081815260408083206001600160a01b03861684529091529020805460ff19166001179055610cca3390565b6001600160a01b0316826001600160a01b0316847f2f8788117e7eff1d82e926ec794901d17c78024a50270940304540a733656f0d60405160405180910390a45060016103bb565b610d1c8282610a9a565b610bdf5760405163e2517d3f60e01b81526001600160a01b038216600482015260248101839052604401610421565b600060208284031215610d5d57600080fd5b81356001600160e01b031981168114610d7557600080fd5b9392505050565b600060208284031215610d8e57600080fd5b5035919050565b80356001600160a01b0381168114610dac57600080fd5b919050565b600060208284031215610dc357600080fd5b610d7582610d95565b60008060408385031215610ddf57600080fd5b82359150610def60208401610d95565b90509250929050565b634e487b7160e01b600052601160045260246000fd5b600082610e2b57634e487b7160e01b600052601260045260246000fd5b500490565b80820281158282048414176103bb576103bb610df8565b818103818111156103bb576103bb610df8565b600060208284031215610e6c57600080fd5b5051919050565b600060208284031215610e8557600080fd5b81518015158114610d7557600080fdfea49807205ce4d355092ef5a8a18f56e8913cf4a201fbe287825b095693c21775a2646970667358221220cf4381e763f4c21b9e852bf9bedb0672d291ff97b8230956abaf24b72f09fe6464736f6c63430008140033",
  "devdoc": {
    "errors": {
      "AccessControlBadConfirmation()": [
        {
          "details": "The caller of a function is not the expected one. NOTE: Don't confuse with {AccessControlUnauthorizedAccount}."
        }
      ],
      "AccessControlUnauthorizedAccount(address,bytes32)": [
        {
          "details": "The `account` is missing a role."
        }
      ]
    },
    "events": {
      "RoleAdminChanged(bytes32,bytes32,bytes32)": {
        "details": "Emitted when `newAdminRole` is set as ``role``'s admin role, replacing `previousAdminRole` `DEFAULT_ADMIN_ROLE` is the starting admin for all roles, despite {RoleAdminChanged} not being emitted signaling this."
      },
      "RoleGranted(bytes32,address,address)": {
        "details": "Emitted when `account` is granted `role`. `sender` is the account that originated the contract call, an admin role bearer except when using {AccessControl-_setupRole}."
      },
      "RoleRevoked(bytes32,address,address)": {
        "details": "Emitted when `account` is revoked `role`. `sender` is the account that originated the contract call:   - if using `revokeRole`, it is the admin role bearer   - if using `renounceRole`, it is the role bearer (i.e. `account`)"
      }
    },
    "kind": "dev",
    "methods": {
      "getRoleAdmin(bytes32)": {
        "details": "Returns the admin role that controls `role`. See {grantRole} and {revokeRole}. To change a role's admin, use {_setRoleAdmin}."
      },
      "grantRole(bytes32,address)": {
        "details": "Grants `role` to `account`. If `account` had not been already granted `role`, emits a {RoleGranted} event. Requirements: - the caller must have ``role``'s admin role. May emit a {RoleGranted} event."
      },
      "hasRole(bytes32,address)": {
        "details": "Returns `true` if `account` has been granted `role`."
      },
      "renounceRole(bytes32,address)": {
        "details": "Revokes `role` from the calling account. Roles are often managed via {grantRole} and {revokeRole}: this function's purpose is to provide a mechanism for accounts to lose their privileges if they are compromised (such as when a trusted device is misplaced). If the calling account had been revoked `role`, emits a {RoleRevoked} event. Requirements: - the caller must be `callerConfirmation`. May emit a {RoleRevoked} event."
      },
      "revokeRole(bytes32,address)": {
        "details": "Revokes `role` from `account`. If `account` had been granted `role`, emits a {RoleRevoked} event. Requirements: - the caller must have ``role``'s admin role. May emit a {RoleRevoked} event."
      },
      "supportsInterface(bytes4)": {
        "details": "See {IERC165-supportsInterface}."
      }
    },
    "version": 1
  },
  "userdoc": {
    "kind": "user",
    "methods": {},
    "version": 1
  },
  "storageLayout": {
    "storage": [
      {
        "astId": 26,
        "contract": "contracts/MumeArtToyExchangerSwapper.sol:MumeArtToyUtilityTokenExchangeSwapper",
        "label": "_roles",
        "offset": 0,
        "slot": "0",
        "type": "t_mapping(t_bytes32,t_struct(RoleData)21_storage)"
      },
      {
        "astId": 4333,
        "contract": "contracts/MumeArtToyExchangerSwapper.sol:MumeArtToyUtilityTokenExchangeSwapper",
        "label": "matuExchangeAddress",
        "offset": 0,
        "slot": "1",
        "type": "t_address"
      },
      {
        "astId": 4335,
        "contract": "contracts/MumeArtToyExchangerSwapper.sol:MumeArtToyUtilityTokenExchangeSwapper",
        "label": "matuContractAddress",
        "offset": 0,
        "slot": "2",
        "type": "t_address"
      },
      {
        "astId": 4337,
        "contract": "contracts/MumeArtToyExchangerSwapper.sol:MumeArtToyUtilityTokenExchangeSwapper",
        "label": "contractDeployer",
        "offset": 0,
        "slot": "3",
        "type": "t_address"
      },
      {
        "astId": 4339,
        "contract": "contracts/MumeArtToyExchangerSwapper.sol:MumeArtToyUtilityTokenExchangeSwapper",
        "label": "fee",
        "offset": 0,
        "slot": "4",
        "type": "t_uint256"
      }
    ],
    "types": {
      "t_address": {
        "encoding": "inplace",
        "label": "address",
        "numberOfBytes": "20"
      },
      "t_bool": {
        "encoding": "inplace",
        "label": "bool",
        "numberOfBytes": "1"
      },
      "t_bytes32": {
        "encoding": "inplace",
        "label": "bytes32",
        "numberOfBytes": "32"
      },
      "t_mapping(t_address,t_bool)": {
        "encoding": "mapping",
        "key": "t_address",
        "label": "mapping(address => bool)",
        "numberOfBytes": "32",
        "value": "t_bool"
      },
      "t_mapping(t_bytes32,t_struct(RoleData)21_storage)": {
        "encoding": "mapping",
        "key": "t_bytes32",
        "label": "mapping(bytes32 => struct AccessControl.RoleData)",
        "numberOfBytes": "32",
        "value": "t_struct(RoleData)21_storage"
      },
      "t_struct(RoleData)21_storage": {
        "encoding": "inplace",
        "label": "struct AccessControl.RoleData",
        "members": [
          {
            "astId": 18,
            "contract": "contracts/MumeArtToyExchangerSwapper.sol:MumeArtToyUtilityTokenExchangeSwapper",
            "label": "hasRole",
            "offset": 0,
            "slot": "0",
            "type": "t_mapping(t_address,t_bool)"
          },
          {
            "astId": 20,
            "contract": "contracts/MumeArtToyExchangerSwapper.sol:MumeArtToyUtilityTokenExchangeSwapper",
            "label": "adminRole",
            "offset": 0,
            "slot": "1",
            "type": "t_bytes32"
          }
        ],
        "numberOfBytes": "64"
      },
      "t_uint256": {
        "encoding": "inplace",
        "label": "uint256",
        "numberOfBytes": "32"
      }
    }
  }
}