{
  "address": "0x412534E7bBB3FC55833c6d32adc6b4450883F2bc",
  "abi": [
    {
      "inputs": [
        {
          "internalType": "address",
          "name": "initialAdmin",
          "type": "address"
        }
      ],
      "stateMutability": "nonpayable",
      "type": "constructor"
    },
    {
      "inputs": [],
      "name": "AccessControlBadConfirmation",
      "type": "error"
    },
    {
      "inputs": [
        {
          "internalType": "address",
          "name": "account",
          "type": "address"
        },
        {
          "internalType": "bytes32",
          "name": "neededRole",
          "type": "bytes32"
        }
      ],
      "name": "AccessControlUnauthorizedAccount",
      "type": "error"
    },
    {
      "inputs": [],
      "name": "ECDSAInvalidSignature",
      "type": "error"
    },
    {
      "inputs": [
        {
          "internalType": "uint256",
          "name": "length",
          "type": "uint256"
        }
      ],
      "name": "ECDSAInvalidSignatureLength",
      "type": "error"
    },
    {
      "inputs": [
        {
          "internalType": "bytes32",
          "name": "s",
          "type": "bytes32"
        }
      ],
      "name": "ECDSAInvalidSignatureS",
      "type": "error"
    },
    {
      "inputs": [
        {
          "internalType": "address",
          "name": "spender",
          "type": "address"
        },
        {
          "internalType": "uint256",
          "name": "allowance",
          "type": "uint256"
        },
        {
          "internalType": "uint256",
          "name": "needed",
          "type": "uint256"
        }
      ],
      "name": "ERC20InsufficientAllowance",
      "type": "error"
    },
    {
      "inputs": [
        {
          "internalType": "address",
          "name": "sender",
          "type": "address"
        },
        {
          "internalType": "uint256",
          "name": "balance",
          "type": "uint256"
        },
        {
          "internalType": "uint256",
          "name": "needed",
          "type": "uint256"
        }
      ],
      "name": "ERC20InsufficientBalance",
      "type": "error"
    },
    {
      "inputs": [
        {
          "internalType": "address",
          "name": "approver",
          "type": "address"
        }
      ],
      "name": "ERC20InvalidApprover",
      "type": "error"
    },
    {
      "inputs": [
        {
          "internalType": "address",
          "name": "receiver",
          "type": "address"
        }
      ],
      "name": "ERC20InvalidReceiver",
      "type": "error"
    },
    {
      "inputs": [
        {
          "internalType": "address",
          "name": "sender",
          "type": "address"
        }
      ],
      "name": "ERC20InvalidSender",
      "type": "error"
    },
    {
      "inputs": [
        {
          "internalType": "address",
          "name": "spender",
          "type": "address"
        }
      ],
      "name": "ERC20InvalidSpender",
      "type": "error"
    },
    {
      "inputs": [
        {
          "internalType": "uint256",
          "name": "deadline",
          "type": "uint256"
        }
      ],
      "name": "ERC2612ExpiredSignature",
      "type": "error"
    },
    {
      "inputs": [
        {
          "internalType": "address",
          "name": "signer",
          "type": "address"
        },
        {
          "internalType": "address",
          "name": "owner",
          "type": "address"
        }
      ],
      "name": "ERC2612InvalidSigner",
      "type": "error"
    },
    {
      "inputs": [],
      "name": "EnforcedPause",
      "type": "error"
    },
    {
      "inputs": [],
      "name": "ExpectedPause",
      "type": "error"
    },
    {
      "inputs": [
        {
          "internalType": "address",
          "name": "account",
          "type": "address"
        },
        {
          "internalType": "uint256",
          "name": "currentNonce",
          "type": "uint256"
        }
      ],
      "name": "InvalidAccountNonce",
      "type": "error"
    },
    {
      "inputs": [],
      "name": "InvalidShortString",
      "type": "error"
    },
    {
      "inputs": [
        {
          "internalType": "string",
          "name": "str",
          "type": "string"
        }
      ],
      "name": "StringTooLong",
      "type": "error"
    },
    {
      "anonymous": false,
      "inputs": [
        {
          "indexed": true,
          "internalType": "address",
          "name": "owner",
          "type": "address"
        },
        {
          "indexed": true,
          "internalType": "address",
          "name": "spender",
          "type": "address"
        },
        {
          "indexed": false,
          "internalType": "uint256",
          "name": "value",
          "type": "uint256"
        }
      ],
      "name": "Approval",
      "type": "event"
    },
    {
      "anonymous": false,
      "inputs": [],
      "name": "EIP712DomainChanged",
      "type": "event"
    },
    {
      "anonymous": false,
      "inputs": [
        {
          "indexed": false,
          "internalType": "address",
          "name": "account",
          "type": "address"
        }
      ],
      "name": "Paused",
      "type": "event"
    },
    {
      "anonymous": false,
      "inputs": [
        {
          "indexed": true,
          "internalType": "bytes32",
          "name": "role",
          "type": "bytes32"
        },
        {
          "indexed": true,
          "internalType": "bytes32",
          "name": "previousAdminRole",
          "type": "bytes32"
        },
        {
          "indexed": true,
          "internalType": "bytes32",
          "name": "newAdminRole",
          "type": "bytes32"
        }
      ],
      "name": "RoleAdminChanged",
      "type": "event"
    },
    {
      "anonymous": false,
      "inputs": [
        {
          "indexed": true,
          "internalType": "bytes32",
          "name": "role",
          "type": "bytes32"
        },
        {
          "indexed": true,
          "internalType": "address",
          "name": "account",
          "type": "address"
        },
        {
          "indexed": true,
          "internalType": "address",
          "name": "sender",
          "type": "address"
        }
      ],
      "name": "RoleGranted",
      "type": "event"
    },
    {
      "anonymous": false,
      "inputs": [
        {
          "indexed": true,
          "internalType": "bytes32",
          "name": "role",
          "type": "bytes32"
        },
        {
          "indexed": true,
          "internalType": "address",
          "name": "account",
          "type": "address"
        },
        {
          "indexed": true,
          "internalType": "address",
          "name": "sender",
          "type": "address"
        }
      ],
      "name": "RoleRevoked",
      "type": "event"
    },
    {
      "anonymous": false,
      "inputs": [
        {
          "indexed": true,
          "internalType": "address",
          "name": "from",
          "type": "address"
        },
        {
          "indexed": true,
          "internalType": "address",
          "name": "to",
          "type": "address"
        },
        {
          "indexed": false,
          "internalType": "uint256",
          "name": "value",
          "type": "uint256"
        }
      ],
      "name": "Transfer",
      "type": "event"
    },
    {
      "anonymous": false,
      "inputs": [
        {
          "indexed": false,
          "internalType": "address",
          "name": "account",
          "type": "address"
        }
      ],
      "name": "Unpaused",
      "type": "event"
    },
    {
      "inputs": [],
      "name": "ADMIN_ROLE",
      "outputs": [
        {
          "internalType": "bytes32",
          "name": "",
          "type": "bytes32"
        }
      ],
      "stateMutability": "view",
      "type": "function"
    },
    {
      "inputs": [],
      "name": "DEFAULT_ADMIN_ROLE",
      "outputs": [
        {
          "internalType": "bytes32",
          "name": "",
          "type": "bytes32"
        }
      ],
      "stateMutability": "view",
      "type": "function"
    },
    {
      "inputs": [],
      "name": "DOMAIN_SEPARATOR",
      "outputs": [
        {
          "internalType": "bytes32",
          "name": "",
          "type": "bytes32"
        }
      ],
      "stateMutability": "view",
      "type": "function"
    },
    {
      "inputs": [
        {
          "internalType": "address",
          "name": "owner",
          "type": "address"
        },
        {
          "internalType": "address",
          "name": "spender",
          "type": "address"
        }
      ],
      "name": "allowance",
      "outputs": [
        {
          "internalType": "uint256",
          "name": "",
          "type": "uint256"
        }
      ],
      "stateMutability": "view",
      "type": "function"
    },
    {
      "inputs": [
        {
          "internalType": "address",
          "name": "spender",
          "type": "address"
        },
        {
          "internalType": "uint256",
          "name": "value",
          "type": "uint256"
        }
      ],
      "name": "approve",
      "outputs": [
        {
          "internalType": "bool",
          "name": "",
          "type": "bool"
        }
      ],
      "stateMutability": "nonpayable",
      "type": "function"
    },
    {
      "inputs": [
        {
          "internalType": "address",
          "name": "account",
          "type": "address"
        }
      ],
      "name": "balanceOf",
      "outputs": [
        {
          "internalType": "uint256",
          "name": "",
          "type": "uint256"
        }
      ],
      "stateMutability": "view",
      "type": "function"
    },
    {
      "inputs": [
        {
          "internalType": "address",
          "name": "to",
          "type": "address"
        },
        {
          "internalType": "uint256",
          "name": "amount",
          "type": "uint256"
        }
      ],
      "name": "burn",
      "outputs": [],
      "stateMutability": "nonpayable",
      "type": "function"
    },
    {
      "inputs": [],
      "name": "contractDeployer",
      "outputs": [
        {
          "internalType": "address",
          "name": "",
          "type": "address"
        }
      ],
      "stateMutability": "view",
      "type": "function"
    },
    {
      "inputs": [],
      "name": "conversationRate",
      "outputs": [
        {
          "internalType": "uint256",
          "name": "",
          "type": "uint256"
        }
      ],
      "stateMutability": "view",
      "type": "function"
    },
    {
      "inputs": [],
      "name": "decimals",
      "outputs": [
        {
          "internalType": "uint8",
          "name": "",
          "type": "uint8"
        }
      ],
      "stateMutability": "view",
      "type": "function"
    },
    {
      "inputs": [],
      "name": "eip712Domain",
      "outputs": [
        {
          "internalType": "bytes1",
          "name": "fields",
          "type": "bytes1"
        },
        {
          "internalType": "string",
          "name": "name",
          "type": "string"
        },
        {
          "internalType": "string",
          "name": "version",
          "type": "string"
        },
        {
          "internalType": "uint256",
          "name": "chainId",
          "type": "uint256"
        },
        {
          "internalType": "address",
          "name": "verifyingContract",
          "type": "address"
        },
        {
          "internalType": "bytes32",
          "name": "salt",
          "type": "bytes32"
        },
        {
          "internalType": "uint256[]",
          "name": "extensions",
          "type": "uint256[]"
        }
      ],
      "stateMutability": "view",
      "type": "function"
    },
    {
      "inputs": [],
      "name": "exchangeMint",
      "outputs": [],
      "stateMutability": "payable",
      "type": "function"
    },
    {
      "inputs": [],
      "name": "feeRate",
      "outputs": [
        {
          "internalType": "uint256",
          "name": "",
          "type": "uint256"
        }
      ],
      "stateMutability": "view",
      "type": "function"
    },
    {
      "inputs": [
        {
          "internalType": "bytes32",
          "name": "role",
          "type": "bytes32"
        }
      ],
      "name": "getRoleAdmin",
      "outputs": [
        {
          "internalType": "bytes32",
          "name": "",
          "type": "bytes32"
        }
      ],
      "stateMutability": "view",
      "type": "function"
    },
    {
      "inputs": [
        {
          "internalType": "address",
          "name": "to",
          "type": "address"
        }
      ],
      "name": "grantAdmin",
      "outputs": [],
      "stateMutability": "nonpayable",
      "type": "function"
    },
    {
      "inputs": [
        {
          "internalType": "bytes32",
          "name": "role",
          "type": "bytes32"
        },
        {
          "internalType": "address",
          "name": "account",
          "type": "address"
        }
      ],
      "name": "grantRole",
      "outputs": [],
      "stateMutability": "nonpayable",
      "type": "function"
    },
    {
      "inputs": [
        {
          "internalType": "bytes32",
          "name": "role",
          "type": "bytes32"
        },
        {
          "internalType": "address",
          "name": "account",
          "type": "address"
        }
      ],
      "name": "hasRole",
      "outputs": [
        {
          "internalType": "bool",
          "name": "",
          "type": "bool"
        }
      ],
      "stateMutability": "view",
      "type": "function"
    },
    {
      "inputs": [
        {
          "internalType": "address",
          "name": "to",
          "type": "address"
        },
        {
          "internalType": "uint256",
          "name": "amount",
          "type": "uint256"
        }
      ],
      "name": "mint",
      "outputs": [],
      "stateMutability": "nonpayable",
      "type": "function"
    },
    {
      "inputs": [],
      "name": "name",
      "outputs": [
        {
          "internalType": "string",
          "name": "",
          "type": "string"
        }
      ],
      "stateMutability": "view",
      "type": "function"
    },
    {
      "inputs": [
        {
          "internalType": "address",
          "name": "owner",
          "type": "address"
        }
      ],
      "name": "nonces",
      "outputs": [
        {
          "internalType": "uint256",
          "name": "",
          "type": "uint256"
        }
      ],
      "stateMutability": "view",
      "type": "function"
    },
    {
      "inputs": [],
      "name": "paused",
      "outputs": [
        {
          "internalType": "bool",
          "name": "",
          "type": "bool"
        }
      ],
      "stateMutability": "view",
      "type": "function"
    },
    {
      "inputs": [
        {
          "internalType": "address",
          "name": "owner",
          "type": "address"
        },
        {
          "internalType": "address",
          "name": "spender",
          "type": "address"
        },
        {
          "internalType": "uint256",
          "name": "value",
          "type": "uint256"
        },
        {
          "internalType": "uint256",
          "name": "deadline",
          "type": "uint256"
        },
        {
          "internalType": "uint8",
          "name": "v",
          "type": "uint8"
        },
        {
          "internalType": "bytes32",
          "name": "r",
          "type": "bytes32"
        },
        {
          "internalType": "bytes32",
          "name": "s",
          "type": "bytes32"
        }
      ],
      "name": "permit",
      "outputs": [],
      "stateMutability": "nonpayable",
      "type": "function"
    },
    {
      "inputs": [
        {
          "internalType": "bytes32",
          "name": "role",
          "type": "bytes32"
        },
        {
          "internalType": "address",
          "name": "callerConfirmation",
          "type": "address"
        }
      ],
      "name": "renounceRole",
      "outputs": [],
      "stateMutability": "nonpayable",
      "type": "function"
    },
    {
      "inputs": [
        {
          "internalType": "address",
          "name": "to",
          "type": "address"
        }
      ],
      "name": "revokeAdmin",
      "outputs": [],
      "stateMutability": "nonpayable",
      "type": "function"
    },
    {
      "inputs": [
        {
          "internalType": "bytes32",
          "name": "role",
          "type": "bytes32"
        },
        {
          "internalType": "address",
          "name": "account",
          "type": "address"
        }
      ],
      "name": "revokeRole",
      "outputs": [],
      "stateMutability": "nonpayable",
      "type": "function"
    },
    {
      "inputs": [
        {
          "internalType": "uint256",
          "name": "rate",
          "type": "uint256"
        }
      ],
      "name": "setConversationRate",
      "outputs": [],
      "stateMutability": "nonpayable",
      "type": "function"
    },
    {
      "inputs": [
        {
          "internalType": "uint256",
          "name": "rate",
          "type": "uint256"
        }
      ],
      "name": "setFeeRate",
      "outputs": [],
      "stateMutability": "nonpayable",
      "type": "function"
    },
    {
      "inputs": [
        {
          "internalType": "bytes4",
          "name": "interfaceId",
          "type": "bytes4"
        }
      ],
      "name": "supportsInterface",
      "outputs": [
        {
          "internalType": "bool",
          "name": "",
          "type": "bool"
        }
      ],
      "stateMutability": "view",
      "type": "function"
    },
    {
      "inputs": [],
      "name": "symbol",
      "outputs": [
        {
          "internalType": "string",
          "name": "",
          "type": "string"
        }
      ],
      "stateMutability": "view",
      "type": "function"
    },
    {
      "inputs": [],
      "name": "totalSupply",
      "outputs": [
        {
          "internalType": "uint256",
          "name": "",
          "type": "uint256"
        }
      ],
      "stateMutability": "view",
      "type": "function"
    },
    {
      "inputs": [
        {
          "internalType": "address",
          "name": "to",
          "type": "address"
        },
        {
          "internalType": "uint256",
          "name": "value",
          "type": "uint256"
        }
      ],
      "name": "transfer",
      "outputs": [
        {
          "internalType": "bool",
          "name": "",
          "type": "bool"
        }
      ],
      "stateMutability": "nonpayable",
      "type": "function"
    },
    {
      "inputs": [
        {
          "internalType": "address",
          "name": "from",
          "type": "address"
        },
        {
          "internalType": "address",
          "name": "to",
          "type": "address"
        },
        {
          "internalType": "uint256",
          "name": "value",
          "type": "uint256"
        }
      ],
      "name": "transferFrom",
      "outputs": [
        {
          "internalType": "bool",
          "name": "",
          "type": "bool"
        }
      ],
      "stateMutability": "nonpayable",
      "type": "function"
    },
    {
      "inputs": [
        {
          "internalType": "address payable",
          "name": "to",
          "type": "address"
        },
        {
          "internalType": "uint256",
          "name": "amount",
          "type": "uint256"
        }
      ],
      "name": "withdrawEther",
      "outputs": [],
      "stateMutability": "nonpayable",
      "type": "function"
    }
  ],
  "transactionHash": "0x3eeb52103de57ac79d32859b01c5cb782fd72886703c54979acf8d303cc70a00",
  "args": [
    "0xC70Edf3aB36E0D57eFD8f412A3460D225931A110"
  ],
  "numDeployments": 1,
  "solcInputHash": "26018b3a7da9d6294bf25cb22b27271b",
  "bytecode": "0x610160604052678ac7230489e80000600b556000600c553480156200002357600080fd5b506040516200208938038062002089833981016040819052620000469162000345565b6040518060400160405280601181526020017026bab6b2a0b93a2a37bca6baaa37b5b2b760791b81525080604051806040016040528060018152602001603160f81b8152506040518060400160405280601481526020017f4d756d65417274546f794d75546f6b656e2d4231000000000000000000000000815250604051806040016040528060098152602001684d41542d4d552d423160b81b8152508160039081620000f491906200041c565b5060046200010382826200041c565b5062000115915083905060056200020e565b61012052620001268160066200020e565b61014052815160208084019190912060e052815190820120610100524660a052620001b460e05161010051604080517f8b73c3c69bb8fe3d512ecc4cf759cc79239f7b179b0ffacaa9a75d522b39400f60208201529081019290925260608201524660808201523060a082015260009060c00160405160208183030381529060405280519060200120905090565b60805250503060c052506008805460ff19169055600a80546001600160a01b03191633179055620002067fa49807205ce4d355092ef5a8a18f56e8913cf4a201fbe287825b095693c217758262000247565b50506200055d565b60006020835110156200022e576200022683620002f9565b905062000241565b816200023b84826200041c565b5060ff90505b92915050565b60008281526009602090815260408083206001600160a01b038516845290915281205460ff16620002f05760008381526009602090815260408083206001600160a01b03861684529091529020805460ff19166001179055620002a73390565b6001600160a01b0316826001600160a01b0316847f2f8788117e7eff1d82e926ec794901d17c78024a50270940304540a733656f0d60405160405180910390a450600162000241565b50600062000241565b600080829050601f8151111562000330578260405163305a27a960e01b8152600401620003279190620004e8565b60405180910390fd5b80516200033d8262000538565b179392505050565b6000602082840312156200035857600080fd5b81516001600160a01b03811681146200037057600080fd5b9392505050565b634e487b7160e01b600052604160045260246000fd5b600181811c90821680620003a257607f821691505b602082108103620003c357634e487b7160e01b600052602260045260246000fd5b50919050565b601f8211156200041757600081815260208120601f850160051c81016020861015620003f25750805b601f850160051c820191505b818110156200041357828155600101620003fe565b5050505b505050565b81516001600160401b0381111562000438576200043862000377565b62000450816200044984546200038d565b84620003c9565b602080601f8311600181146200048857600084156200046f5750858301515b600019600386901b1c1916600185901b17855562000413565b600085815260208120601f198616915b82811015620004b95788860151825594840194600190910190840162000498565b5085821015620004d85787850151600019600388901b60f8161c191681555b5050505050600190811b01905550565b600060208083528351808285015260005b818110156200051757858101830151858201604001528201620004f9565b506000604082860101526040601f19601f8301168501019250505092915050565b80516020808301519190811015620003c35760001960209190910360031b1b16919050565b60805160a05160c05160e051610100516101205161014051611ad1620005b8600039600061118001526000611153015260006110fb015260006110d30152600061102e01526000611058015260006110820152611ad16000f3fe6080604052600436106101ee5760003560e01c80635c975abb1161010d578063978bbdb9116100a0578063a9059cbb1161006f578063a9059cbb14610584578063bbcc8faa146105a4578063d505accf146105ba578063d547741f146105da578063dd62ed3e146105fa57600080fd5b8063978bbdb9146105015780639dc29fac14610517578063a217fddf14610537578063a24bfc6e1461054c57600080fd5b806381846d99116100dc57806381846d991461048457806384b0196e146104a457806391d14854146104cc57806395d89b41146104ec57600080fd5b80635c975abb146103f457806370a082311461040c57806375b238fc146104425780637ecebe001461046457600080fd5b80632f2ff15d1161018557806336568abe1161015457806336568abe1461037457806340c10f191461039457806345596e2e146103b4578063522f6815146103d457600080fd5b80632f2ff15d14610303578063313ce5671461032357806335bb3e161461033f5780633644e5151461035f57600080fd5b806318160ddd116101c157806318160ddd1461027457806323b872dd14610293578063248a9ca3146102b35780632d345670146102e357600080fd5b806301ffc9a7146101f357806306fdde0314610228578063095ea7b31461024a5780631588905b1461026a575b600080fd5b3480156101ff57600080fd5b5061021361020e366004611709565b610640565b60405190151581526020015b60405180910390f35b34801561023457600080fd5b5061023d610677565b60405161021f9190611780565b34801561025657600080fd5b506102136102653660046117a8565b610709565b610272610721565b005b34801561028057600080fd5b506002545b60405190815260200161021f565b34801561029f57600080fd5b506102136102ae3660046117d4565b6107d9565b3480156102bf57600080fd5b506102856102ce366004611815565b60009081526009602052604090206001015490565b3480156102ef57600080fd5b506102726102fe36600461182e565b6107fd565b34801561030f57600080fd5b5061027261031e36600461184b565b610879565b34801561032f57600080fd5b506040516012815260200161021f565b34801561034b57600080fd5b5061027261035a36600461182e565b6108a4565b34801561036b57600080fd5b5061028561091f565b34801561038057600080fd5b5061027261038f36600461184b565b61092e565b3480156103a057600080fd5b506102726103af3660046117a8565b610961565b3480156103c057600080fd5b506102726103cf366004611815565b61098b565b3480156103e057600080fd5b506102726103ef3660046117a8565b610a07565b34801561040057600080fd5b5060085460ff16610213565b34801561041857600080fd5b5061028561042736600461182e565b6001600160a01b031660009081526020819052604090205490565b34801561044e57600080fd5b50610285600080516020611a7c83398151915281565b34801561047057600080fd5b5061028561047f36600461182e565b610b2c565b34801561049057600080fd5b5061027261049f366004611815565b610b4a565b3480156104b057600080fd5b506104b9610bb8565b60405161021f979695949392919061187b565b3480156104d857600080fd5b506102136104e736600461184b565b610bfe565b3480156104f857600080fd5b5061023d610c29565b34801561050d57600080fd5b50610285600c5481565b34801561052357600080fd5b506102726105323660046117a8565b610c38565b34801561054357600080fd5b50610285600081565b34801561055857600080fd5b50600a5461056c906001600160a01b031681565b6040516001600160a01b03909116815260200161021f565b34801561059057600080fd5b5061021361059f3660046117a8565b610c62565b3480156105b057600080fd5b50610285600b5481565b3480156105c657600080fd5b506102726105d5366004611911565b610c70565b3480156105e657600080fd5b506102726105f536600461184b565b610daa565b34801561060657600080fd5b50610285610615366004611988565b6001600160a01b03918216600090815260016020908152604080832093909416825291909152205490565b60006001600160e01b03198216637965db0b60e01b148061067157506301ffc9a760e01b6001600160e01b03198316145b92915050565b606060038054610686906119b6565b80601f01602080910402602001604051908101604052809291908181526020018280546106b2906119b6565b80156106ff5780601f106106d4576101008083540402835291602001916106ff565b820191906000526020600020905b8154815290600101906020018083116106e257829003601f168201915b5050505050905090565b600033610717818585610dcf565b5060019392505050565b610729610ddc565b60006305f5e100600c543461073e9190611a06565b6107489190611a1d565b905060006107568234611a3f565b90506000670de0b6b3a7640000600b54836107719190611a06565b61077b9190611a1d565b9050600081116107ca5760405162461bcd60e51b815260206004820152601560248201527443616e2774206d696e74207a65726f2076616c756560581b60448201526064015b60405180910390fd5b6107d43382610e02565b505050565b6000336107e7858285610e3c565b6107f2858585610eb4565b506001949350505050565b600080516020611a7c83398151915261081581610f13565b336001600160a01b038316036108615760405162461bcd60e51b815260206004820152601160248201527021b0b713ba103932bb37b5b29039b2b63360791b60448201526064016107c1565b6107d4600080516020611a7c83398151915283610f20565b60008281526009602052604090206001015461089481610f13565b61089e8383610f95565b50505050565b600080516020611a7c8339815191526108bc81610f13565b336001600160a01b038316036109075760405162461bcd60e51b815260206004820152601060248201526f21b0b713ba1033b930b73a1039b2b63360811b60448201526064016107c1565b6107d4600080516020611a7c83398151915283610f95565b6000610929611021565b905090565b6001600160a01b03811633146109575760405163334bd91960e11b815260040160405180910390fd5b6107d48282610f20565b610969610ddc565b600080516020611a7c83398151915261098181610f13565b6107d48383610e02565b600080516020611a7c8339815191526109a381610f13565b6305f5e1008210610a015760405162461bcd60e51b815260206004820152602260248201527f4665652052617465206d75737420696e2072616e6765205b7a65726f2c203165604482015261382960f01b60648201526084016107c1565b50600c55565b600080516020611a7c833981519152610a1f81610f13565b4782811015610a655760405162461bcd60e51b81526020600482015260126024820152714e6f7420456e6f7567682042616c616e636560701b60448201526064016107c1565b6000846001600160a01b031684604051610a9b907515da5d1a191c985dc8199c9bdb4818dbdb9d1c9858dd60521b815260160190565b60006040518083038185875af1925050503d8060008114610ad8576040519150601f19603f3d011682016040523d82523d6000602084013e610add565b606091505b5050905080610b255760405162461bcd60e51b81526020600482015260146024820152732330b4b632b2103a379039b2b7321022ba3432b960611b60448201526064016107c1565b5050505050565b6001600160a01b038116600090815260076020526040812054610671565b600080516020611a7c833981519152610b6281610f13565b60008211610bb25760405162461bcd60e51b815260206004820152601d60248201527f436f6e766572736174696f6e2052617465206e6f74206265207a65726f00000060448201526064016107c1565b50600b55565b600060608060008060006060610bcc61114c565b610bd4611179565b60408051600080825260208201909252600f60f81b9b939a50919850469750309650945092509050565b60009182526009602090815260408084206001600160a01b0393909316845291905290205460ff1690565b606060048054610686906119b6565b610c40610ddc565b600080516020611a7c833981519152610c5881610f13565b6107d483836111a6565b600033610717818585610eb4565b83421115610c945760405163313c898160e11b8152600481018590526024016107c1565b60007f6e71edae12b1b97f4d1f60370fef10105fa2faae0126114a169c64845d6126c9888888610ce18c6001600160a01b0316600090815260076020526040902080546001810190915590565b6040805160208101969096526001600160a01b0394851690860152929091166060840152608083015260a082015260c0810186905260e0016040516020818303038152906040528051906020012090506000610d3c826111dc565b90506000610d4c82878787611209565b9050896001600160a01b0316816001600160a01b031614610d93576040516325c0072360e11b81526001600160a01b0380831660048301528b1660248201526044016107c1565b610d9e8a8a8a610dcf565b50505050505050505050565b600082815260096020526040902060010154610dc581610f13565b61089e8383610f20565b6107d48383836001611237565b60085460ff1615610e005760405163d93c066560e01b815260040160405180910390fd5b565b6001600160a01b038216610e2c5760405163ec442f0560e01b8152600060048201526024016107c1565b610e386000838361130c565b5050565b6001600160a01b03838116600090815260016020908152604080832093861683529290522054600019811461089e5781811015610ea557604051637dc7a0d960e11b81526001600160a01b038416600482015260248101829052604481018390526064016107c1565b61089e84848484036000611237565b6001600160a01b038316610ede57604051634b637e8f60e11b8152600060048201526024016107c1565b6001600160a01b038216610f085760405163ec442f0560e01b8152600060048201526024016107c1565b6107d483838361130c565b610f1d8133611436565b50565b6000610f2c8383610bfe565b15610f8d5760008381526009602090815260408083206001600160a01b0386168085529252808320805460ff1916905551339286917ff6391f5c32d9c69d2a47ea670b442974b53935d1edc7fd64eb21e047a839171b9190a4506001610671565b506000610671565b6000610fa18383610bfe565b610f8d5760008381526009602090815260408083206001600160a01b03861684529091529020805460ff19166001179055610fd93390565b6001600160a01b0316826001600160a01b0316847f2f8788117e7eff1d82e926ec794901d17c78024a50270940304540a733656f0d60405160405180910390a4506001610671565b6000306001600160a01b037f00000000000000000000000000000000000000000000000000000000000000001614801561107a57507f000000000000000000000000000000000000000000000000000000000000000046145b156110a457507f000000000000000000000000000000000000000000000000000000000000000090565b610929604080517f8b73c3c69bb8fe3d512ecc4cf759cc79239f7b179b0ffacaa9a75d522b39400f60208201527f0000000000000000000000000000000000000000000000000000000000000000918101919091527f000000000000000000000000000000000000000000000000000000000000000060608201524660808201523060a082015260009060c00160405160208183030381529060405280519060200120905090565b60606109297f0000000000000000000000000000000000000000000000000000000000000000600561146f565b60606109297f0000000000000000000000000000000000000000000000000000000000000000600661146f565b6001600160a01b0382166111d057604051634b637e8f60e11b8152600060048201526024016107c1565b610e388260008361130c565b60006106716111e9611021565b8360405161190160f01b8152600281019290925260228201526042902090565b60008060008061121b8888888861151a565b92509250925061122b82826115e9565b50909695505050505050565b6001600160a01b0384166112615760405163e602df0560e01b8152600060048201526024016107c1565b6001600160a01b03831661128b57604051634a1406b160e11b8152600060048201526024016107c1565b6001600160a01b038085166000908152600160209081526040808320938716835292905220829055801561089e57826001600160a01b0316846001600160a01b03167f8c5be1e5ebec7d5bd14f71427d1e84f3dd0314c0f7b2291e5b200ac8c7c3b925846040516112fe91815260200190565b60405180910390a350505050565b6001600160a01b03831661133757806002600082825461132c9190611a52565b909155506113a99050565b6001600160a01b0383166000908152602081905260409020548181101561138a5760405163391434e360e21b81526001600160a01b038516600482015260248101829052604481018390526064016107c1565b6001600160a01b03841660009081526020819052604090209082900390555b6001600160a01b0382166113c5576002805482900390556113e4565b6001600160a01b03821660009081526020819052604090208054820190555b816001600160a01b0316836001600160a01b03167fddf252ad1be2c89b69c2b068fc378daa952ba7f163c4a11628f55a4df523b3ef8360405161142991815260200190565b60405180910390a3505050565b6114408282610bfe565b610e385760405163e2517d3f60e01b81526001600160a01b0382166004820152602481018390526044016107c1565b606060ff831461148957611482836116a2565b9050610671565b818054611495906119b6565b80601f01602080910402602001604051908101604052809291908181526020018280546114c1906119b6565b801561150e5780601f106114e35761010080835404028352916020019161150e565b820191906000526020600020905b8154815290600101906020018083116114f157829003601f168201915b50505050509050610671565b600080807f7fffffffffffffffffffffffffffffff5d576e7357a4501ddfe92f46681b20a084111561155557506000915060039050826115df565b604080516000808252602082018084528a905260ff891692820192909252606081018790526080810186905260019060a0016020604051602081039080840390855afa1580156115a9573d6000803e3d6000fd5b5050604051601f1901519150506001600160a01b0381166115d5575060009250600191508290506115df565b9250600091508190505b9450945094915050565b60008260038111156115fd576115fd611a65565b03611606575050565b600182600381111561161a5761161a611a65565b036116385760405163f645eedf60e01b815260040160405180910390fd5b600282600381111561164c5761164c611a65565b0361166d5760405163fce698f760e01b8152600481018290526024016107c1565b600382600381111561168157611681611a65565b03610e38576040516335e2f38360e21b8152600481018290526024016107c1565b606060006116af836116e1565b604080516020808252818301909252919250600091906020820181803683375050509182525060208101929092525090565b600060ff8216601f81111561067157604051632cd44ac360e21b815260040160405180910390fd5b60006020828403121561171b57600080fd5b81356001600160e01b03198116811461173357600080fd5b9392505050565b6000815180845260005b8181101561176057602081850181015186830182015201611744565b506000602082860101526020601f19601f83011685010191505092915050565b602081526000611733602083018461173a565b6001600160a01b0381168114610f1d57600080fd5b600080604083850312156117bb57600080fd5b82356117c681611793565b946020939093013593505050565b6000806000606084860312156117e957600080fd5b83356117f481611793565b9250602084013561180481611793565b929592945050506040919091013590565b60006020828403121561182757600080fd5b5035919050565b60006020828403121561184057600080fd5b813561173381611793565b6000806040838503121561185e57600080fd5b82359150602083013561187081611793565b809150509250929050565b60ff60f81b881681526000602060e08184015261189b60e084018a61173a565b83810360408501526118ad818a61173a565b606085018990526001600160a01b038816608086015260a0850187905284810360c0860152855180825283870192509083019060005b818110156118ff578351835292840192918401916001016118e3565b50909c9b505050505050505050505050565b600080600080600080600060e0888a03121561192c57600080fd5b873561193781611793565b9650602088013561194781611793565b95506040880135945060608801359350608088013560ff8116811461196b57600080fd5b9699959850939692959460a0840135945060c09093013592915050565b6000806040838503121561199b57600080fd5b82356119a681611793565b9150602083013561187081611793565b600181811c908216806119ca57607f821691505b6020821081036119ea57634e487b7160e01b600052602260045260246000fd5b50919050565b634e487b7160e01b600052601160045260246000fd5b8082028115828204841417610671576106716119f0565b600082611a3a57634e487b7160e01b600052601260045260246000fd5b500490565b81810381811115610671576106716119f0565b80820180821115610671576106716119f0565b634e487b7160e01b600052602160045260246000fdfea49807205ce4d355092ef5a8a18f56e8913cf4a201fbe287825b095693c21775a2646970667358221220bfe880b71bf15fde916c65f6d56de8b08df3c225c593415b00c2dcd69fee1bf564736f6c63430008140033",
  "devdoc": {
    "errors": {
      "AccessControlBadConfirmation()": [
        {
          "details": "The caller of a function is not the expected one. NOTE: Don't confuse with {AccessControlUnauthorizedAccount}."
        }
      ],
      "AccessControlUnauthorizedAccount(address,bytes32)": [
        {
          "details": "The `account` is missing a role."
        }
      ],
      "ECDSAInvalidSignature()": [
        {
          "details": "The signature derives the `address(0)`."
        }
      ],
      "ECDSAInvalidSignatureLength(uint256)": [
        {
          "details": "The signature has an invalid length."
        }
      ],
      "ECDSAInvalidSignatureS(bytes32)": [
        {
          "details": "The signature has an S value that is in the upper half order."
        }
      ],
      "ERC20InsufficientAllowance(address,uint256,uint256)": [
        {
          "details": "Indicates a failure with the `spender`s `allowance`. Used in transfers.",
          "params": {
            "allowance": "Amount of tokens a `spender` is allowed to operate with.",
            "needed": "Minimum amount required to perform a transfer.",
            "spender": "Address that may be allowed to operate on tokens without being their owner."
          }
        }
      ],
      "ERC20InsufficientBalance(address,uint256,uint256)": [
        {
          "details": "Indicates an error related to the current `balance` of a `sender`. Used in transfers.",
          "params": {
            "balance": "Current balance for the interacting account.",
            "needed": "Minimum amount required to perform a transfer.",
            "sender": "Address whose tokens are being transferred."
          }
        }
      ],
      "ERC20InvalidApprover(address)": [
        {
          "details": "Indicates a failure with the `approver` of a token to be approved. Used in approvals.",
          "params": {
            "approver": "Address initiating an approval operation."
          }
        }
      ],
      "ERC20InvalidReceiver(address)": [
        {
          "details": "Indicates a failure with the token `receiver`. Used in transfers.",
          "params": {
            "receiver": "Address to which tokens are being transferred."
          }
        }
      ],
      "ERC20InvalidSender(address)": [
        {
          "details": "Indicates a failure with the token `sender`. Used in transfers.",
          "params": {
            "sender": "Address whose tokens are being transferred."
          }
        }
      ],
      "ERC20InvalidSpender(address)": [
        {
          "details": "Indicates a failure with the `spender` to be approved. Used in approvals.",
          "params": {
            "spender": "Address that may be allowed to operate on tokens without being their owner."
          }
        }
      ],
      "ERC2612ExpiredSignature(uint256)": [
        {
          "details": "Permit deadline has expired."
        }
      ],
      "ERC2612InvalidSigner(address,address)": [
        {
          "details": "Mismatched signature."
        }
      ],
      "EnforcedPause()": [
        {
          "details": "The operation failed because the contract is paused."
        }
      ],
      "ExpectedPause()": [
        {
          "details": "The operation failed because the contract is not paused."
        }
      ],
      "InvalidAccountNonce(address,uint256)": [
        {
          "details": "The nonce used for an `account` is not the expected current nonce."
        }
      ]
    },
    "events": {
      "Approval(address,address,uint256)": {
        "details": "Emitted when the allowance of a `spender` for an `owner` is set by a call to {approve}. `value` is the new allowance."
      },
      "EIP712DomainChanged()": {
        "details": "MAY be emitted to signal that the domain could have changed."
      },
      "Paused(address)": {
        "details": "Emitted when the pause is triggered by `account`."
      },
      "RoleAdminChanged(bytes32,bytes32,bytes32)": {
        "details": "Emitted when `newAdminRole` is set as ``role``'s admin role, replacing `previousAdminRole` `DEFAULT_ADMIN_ROLE` is the starting admin for all roles, despite {RoleAdminChanged} not being emitted signaling this."
      },
      "RoleGranted(bytes32,address,address)": {
        "details": "Emitted when `account` is granted `role`. `sender` is the account that originated the contract call, an admin role bearer except when using {AccessControl-_setupRole}."
      },
      "RoleRevoked(bytes32,address,address)": {
        "details": "Emitted when `account` is revoked `role`. `sender` is the account that originated the contract call:   - if using `revokeRole`, it is the admin role bearer   - if using `renounceRole`, it is the role bearer (i.e. `account`)"
      },
      "Transfer(address,address,uint256)": {
        "details": "Emitted when `value` tokens are moved from one account (`from`) to another (`to`). Note that `value` may be zero."
      },
      "Unpaused(address)": {
        "details": "Emitted when the pause is lifted by `account`."
      }
    },
    "kind": "dev",
    "methods": {
      "DOMAIN_SEPARATOR()": {
        "details": "Returns the domain separator used in the encoding of the signature for {permit}, as defined by {EIP712}."
      },
      "allowance(address,address)": {
        "details": "See {IERC20-allowance}."
      },
      "approve(address,uint256)": {
        "details": "See {IERC20-approve}. NOTE: If `value` is the maximum `uint256`, the allowance is not updated on `transferFrom`. This is semantically equivalent to an infinite approval. Requirements: - `spender` cannot be the zero address."
      },
      "balanceOf(address)": {
        "details": "See {IERC20-balanceOf}."
      },
      "decimals()": {
        "details": "Returns the number of decimals used to get its user representation. For example, if `decimals` equals `2`, a balance of `505` tokens should be displayed to a user as `5.05` (`505 / 10 ** 2`). Tokens usually opt for a value of 18, imitating the relationship between Ether and Wei. This is the default value returned by this function, unless it's overridden. NOTE: This information is only used for _display_ purposes: it in no way affects any of the arithmetic of the contract, including {IERC20-balanceOf} and {IERC20-transfer}."
      },
      "eip712Domain()": {
        "details": "See {IERC-5267}."
      },
      "getRoleAdmin(bytes32)": {
        "details": "Returns the admin role that controls `role`. See {grantRole} and {revokeRole}. To change a role's admin, use {_setRoleAdmin}."
      },
      "grantRole(bytes32,address)": {
        "details": "Grants `role` to `account`. If `account` had not been already granted `role`, emits a {RoleGranted} event. Requirements: - the caller must have ``role``'s admin role. May emit a {RoleGranted} event."
      },
      "hasRole(bytes32,address)": {
        "details": "Returns `true` if `account` has been granted `role`."
      },
      "name()": {
        "details": "Returns the name of the token."
      },
      "nonces(address)": {
        "details": "Returns the current nonce for `owner`. This value must be included whenever a signature is generated for {permit}. Every successful call to {permit} increases ``owner``'s nonce by one. This prevents a signature from being used multiple times."
      },
      "paused()": {
        "details": "Returns true if the contract is paused, and false otherwise."
      },
      "permit(address,address,uint256,uint256,uint8,bytes32,bytes32)": {
        "details": "Sets `value` as the allowance of `spender` over ``owner``'s tokens, given ``owner``'s signed approval. IMPORTANT: The same issues {IERC20-approve} has related to transaction ordering also apply here. Emits an {Approval} event. Requirements: - `spender` cannot be the zero address. - `deadline` must be a timestamp in the future. - `v`, `r` and `s` must be a valid `secp256k1` signature from `owner` over the EIP712-formatted function arguments. - the signature must use ``owner``'s current nonce (see {nonces}). For more information on the signature format, see the https://eips.ethereum.org/EIPS/eip-2612#specification[relevant EIP section]. CAUTION: See Security Considerations above."
      },
      "renounceRole(bytes32,address)": {
        "details": "Revokes `role` from the calling account. Roles are often managed via {grantRole} and {revokeRole}: this function's purpose is to provide a mechanism for accounts to lose their privileges if they are compromised (such as when a trusted device is misplaced). If the calling account had been revoked `role`, emits a {RoleRevoked} event. Requirements: - the caller must be `callerConfirmation`. May emit a {RoleRevoked} event."
      },
      "revokeRole(bytes32,address)": {
        "details": "Revokes `role` from `account`. If `account` had been granted `role`, emits a {RoleRevoked} event. Requirements: - the caller must have ``role``'s admin role. May emit a {RoleRevoked} event."
      },
      "supportsInterface(bytes4)": {
        "details": "See {IERC165-supportsInterface}."
      },
      "symbol()": {
        "details": "Returns the symbol of the token, usually a shorter version of the name."
      },
      "totalSupply()": {
        "details": "See {IERC20-totalSupply}."
      },
      "transfer(address,uint256)": {
        "details": "See {IERC20-transfer}. Requirements: - `to` cannot be the zero address. - the caller must have a balance of at least `value`."
      },
      "transferFrom(address,address,uint256)": {
        "details": "See {IERC20-transferFrom}. Emits an {Approval} event indicating the updated allowance. This is not required by the EIP. See the note at the beginning of {ERC20}. NOTE: Does not update the allowance if the current allowance is the maximum `uint256`. Requirements: - `from` and `to` cannot be the zero address. - `from` must have a balance of at least `value`. - the caller must have allowance for ``from``'s tokens of at least `value`."
      }
    },
    "version": 1
  },
  "userdoc": {
    "kind": "user",
    "methods": {},
    "version": 1
  },
  "storageLayout": {
    "storage": [
      {
        "astId": 563,
        "contract": "contracts/MuTokenB1.sol:MumeArtToyMuTokenB1",
        "label": "_balances",
        "offset": 0,
        "slot": "0",
        "type": "t_mapping(t_address,t_uint256)"
      },
      {
        "astId": 569,
        "contract": "contracts/MuTokenB1.sol:MumeArtToyMuTokenB1",
        "label": "_allowances",
        "offset": 0,
        "slot": "1",
        "type": "t_mapping(t_address,t_mapping(t_address,t_uint256))"
      },
      {
        "astId": 571,
        "contract": "contracts/MuTokenB1.sol:MumeArtToyMuTokenB1",
        "label": "_totalSupply",
        "offset": 0,
        "slot": "2",
        "type": "t_uint256"
      },
      {
        "astId": 573,
        "contract": "contracts/MuTokenB1.sol:MumeArtToyMuTokenB1",
        "label": "_name",
        "offset": 0,
        "slot": "3",
        "type": "t_string_storage"
      },
      {
        "astId": 575,
        "contract": "contracts/MuTokenB1.sol:MumeArtToyMuTokenB1",
        "label": "_symbol",
        "offset": 0,
        "slot": "4",
        "type": "t_string_storage"
      },
      {
        "astId": 2523,
        "contract": "contracts/MuTokenB1.sol:MumeArtToyMuTokenB1",
        "label": "_nameFallback",
        "offset": 0,
        "slot": "5",
        "type": "t_string_storage"
      },
      {
        "astId": 2525,
        "contract": "contracts/MuTokenB1.sol:MumeArtToyMuTokenB1",
        "label": "_versionFallback",
        "offset": 0,
        "slot": "6",
        "type": "t_string_storage"
      },
      {
        "astId": 1385,
        "contract": "contracts/MuTokenB1.sol:MumeArtToyMuTokenB1",
        "label": "_nonces",
        "offset": 0,
        "slot": "7",
        "type": "t_mapping(t_address,t_uint256)"
      },
      {
        "astId": 1448,
        "contract": "contracts/MuTokenB1.sol:MumeArtToyMuTokenB1",
        "label": "_paused",
        "offset": 0,
        "slot": "8",
        "type": "t_bool"
      },
      {
        "astId": 26,
        "contract": "contracts/MuTokenB1.sol:MumeArtToyMuTokenB1",
        "label": "_roles",
        "offset": 0,
        "slot": "9",
        "type": "t_mapping(t_bytes32,t_struct(RoleData)21_storage)"
      },
      {
        "astId": 4003,
        "contract": "contracts/MuTokenB1.sol:MumeArtToyMuTokenB1",
        "label": "contractDeployer",
        "offset": 0,
        "slot": "10",
        "type": "t_address"
      },
      {
        "astId": 4008,
        "contract": "contracts/MuTokenB1.sol:MumeArtToyMuTokenB1",
        "label": "conversationRate",
        "offset": 0,
        "slot": "11",
        "type": "t_uint256"
      },
      {
        "astId": 4013,
        "contract": "contracts/MuTokenB1.sol:MumeArtToyMuTokenB1",
        "label": "feeRate",
        "offset": 0,
        "slot": "12",
        "type": "t_uint256"
      }
    ],
    "types": {
      "t_address": {
        "encoding": "inplace",
        "label": "address",
        "numberOfBytes": "20"
      },
      "t_bool": {
        "encoding": "inplace",
        "label": "bool",
        "numberOfBytes": "1"
      },
      "t_bytes32": {
        "encoding": "inplace",
        "label": "bytes32",
        "numberOfBytes": "32"
      },
      "t_mapping(t_address,t_bool)": {
        "encoding": "mapping",
        "key": "t_address",
        "label": "mapping(address => bool)",
        "numberOfBytes": "32",
        "value": "t_bool"
      },
      "t_mapping(t_address,t_mapping(t_address,t_uint256))": {
        "encoding": "mapping",
        "key": "t_address",
        "label": "mapping(address => mapping(address => uint256))",
        "numberOfBytes": "32",
        "value": "t_mapping(t_address,t_uint256)"
      },
      "t_mapping(t_address,t_uint256)": {
        "encoding": "mapping",
        "key": "t_address",
        "label": "mapping(address => uint256)",
        "numberOfBytes": "32",
        "value": "t_uint256"
      },
      "t_mapping(t_bytes32,t_struct(RoleData)21_storage)": {
        "encoding": "mapping",
        "key": "t_bytes32",
        "label": "mapping(bytes32 => struct AccessControl.RoleData)",
        "numberOfBytes": "32",
        "value": "t_struct(RoleData)21_storage"
      },
      "t_string_storage": {
        "encoding": "bytes",
        "label": "string",
        "numberOfBytes": "32"
      },
      "t_struct(RoleData)21_storage": {
        "encoding": "inplace",
        "label": "struct AccessControl.RoleData",
        "members": [
          {
            "astId": 18,
            "contract": "contracts/MuTokenB1.sol:MumeArtToyMuTokenB1",
            "label": "hasRole",
            "offset": 0,
            "slot": "0",
            "type": "t_mapping(t_address,t_bool)"
          },
          {
            "astId": 20,
            "contract": "contracts/MuTokenB1.sol:MumeArtToyMuTokenB1",
            "label": "adminRole",
            "offset": 0,
            "slot": "1",
            "type": "t_bytes32"
          }
        ],
        "numberOfBytes": "64"
      },
      "t_uint256": {
        "encoding": "inplace",
        "label": "uint256",
        "numberOfBytes": "32"
      }
    }
  }
}